:020000021000EC
:10000000000004204D9C0100859C0100897F0100B7
:10001000899C0100957F01009B7F0100000000008A
:10002000000000000000000000000000C1260100E8
:10003000919C0100000000005B2701006B2701007C
:1000400019E00100B94B0100979C0100979C010049
:10005000979C0100979C0100979C0100979C0100D0
:10006000979C0100979C0100979C0100979C0100C0
:10007000979C01003DE40100979C0100D14B0100D9
:10008000979C0100979C0100979C0100979C0100A0
:10009000979C0100979C0100979C0100979C010090
:1000A000979C0100979C0100979C0100979C010080
:1000B000979C0100979C01000000000000000000D8
:1000C000979C0100979C0100979C0100979C010060
:1000D000979C0100979C0100979C0100979C010050
:1000E000979C0100979C0100979C01000000000074
:1000F00000000000979C010000000000979C010098
:1001000010B5054C237833B9044B13B10448AFF351
:1001100000800123237010BD281000200000000083
:100120003C70020008B5034B1BB103490348AFF311
:10013000008008BD000000002C1000203C70020070
:10014000154B002B08BF134B9D46A3F5803A0021A9
:100150008B460F461348144A121A11F0A9FB0F4B95
:10016000002B00D098470E4B002B00D09847002062
:10017000002104000D000D48002802D00C4808F0B2
:100180009FFC10F0A1FE2000290004F049FB08F0BC
:1001900094FC00BF000008000000042000000000E4
:1001A0007D4701002810002060B70020C18A0100AF
:1001B0000000000038B5054CA4F1600520460C3C59
:1001C00002F0BEF8AC42F9D138BD00BF9810002053
:1001D0000146014804F00BBFA4100020F8B5084FF9
:1001E000054600240C26294606FB047002F04AF955
:1001F00008B1E0B2F8BD0134082CF4D1FAE700BF31
:10020000441000201FB5014601A802F012F901A810
:10021000FFF7E4FF044601A802F092F804F00101A0
:10022000102002F025FAC4F34001142002F020FA55
:10023000C4F38001152002F01BFA04B010BD1FB5F5
:100240000C46014601A802F0F4F801A8FFF7DAFF16
:1002500001A802F075F82046FFF7BAFF04B010BD00
:100260001FB5094C0949204602F0EDF8214601A8C6
:1002700002F0DFF84FF07C5101A8FFF7E0FF01A882
:1002800002F05EF804B010BDD0100020AA4E0200AB
:1002900038B5244C2449254D204602F09CF82449C9
:1002A00004F10C0002F097F8224904F1180002F062
:1002B00092F8214904F1240002F08DF81F4904F15D
:1002C000300002F088F8294604F13C0002F083F87F
:1002D000294604F1480002F07EF804F15400184C5D
:1002E000294602F078F822461649174D002008F0FA
:1002F000E2FB0A2002F0F0F80146284604F0BFFEB7
:100300002846124D1249224608F0D5FB11492846CD
:1003100002F061F8224628460F49BDE8384008F04F
:10032000CABB00BF44100020AA4E0200A54E020026
:10033000904E0200964E02009A4E02009F4E02001E
:1003400000020020B5010100A4100020D010002000
:10035000C7500100E06102004123010008B54FF4DD
:1003600016510C4800F0EEFB0B490C4802F06BF8FC
:100370000B490C4804F049FE0121102002F034F929
:100380000121142002F030F901211520BDE80840B8
:1003900002F02AB9A0160020AA4E0200D0100020B8
:1003A0006F12033BA41000200020704770470368C1
:1003B000C9B21B68184749000023C161C0F82C323C
:1003C0007047036801211B6B184710B403689C6BCE
:1003D0000123A4465DF8044B6047D0F82C32B3F5F6
:1003E000807F1FBF5A1CC0F82C22C01880F82C1127
:1003F00014BF012000207047D0F8280170477047D3
:10040000C0F830127047C0F834127047D0F8283165
:10041000A3B1D0F828318BB1D0F82431D0F8242101
:1004200003440132D2B293F82030C0F82421D0F82E
:100430002821013AC0F82821184670474FF0FF30B4
:100440007047D0F828312BB1D0F82431184490F8F7
:10045000200070474FF0FF30704738B503685B6A83
:1004600004469847A82008F031FD94F9192094F922
:100470001810054604F052FD656138BD70B503687B
:1004800086B05B6A05460E469847482008F01EFD78
:1004900095F9192095F91810044604F079FD7100BA
:1004A00020462C6104F090FDBC2008F00FFD0026D2
:1004B000134B0360044631460661403008F02CFFC0
:1004C00004F1540008F0C6FE0E4B00934FF4006296
:1004D00033461821204608F0B9FF0B4B05930B4B10
:1004E000C5F8384202A92046CDE90336029508F046
:1004F000B9FF059B13B19B6802A8984706B070BD71
:1005000080680200BC4E0200B04E02005D06010091
:100510000B6803604B6843608B688360704738B535
:10052000D0F82C3214461A44B2F5807F88BFC3F548
:100530008074054600F596702246184411F0BAF80A
:10054000D5F82C322344C5F82C32204638BD38B5B6
:10055000044640690D4608B104F004FC206920B14E
:100560002946BDE8384004F02DBD38BD10B504461D
:10057000406920B10368DB68984700236361236901
:100580009BB1D4F8380208F0DDFFD4F8380209F046
:1005900023F8D4F8380210B103685B689847482103
:1005A000206908F0A9FC0023236110BD1FB5024695
:1005B000D0F82C32D469406981F0010100913BB937
:1005C000012303AA214604F0FEFBC0B204B010BD13
:1005D00002F59672214604F0D7FB002814BF0220D2
:1005E0000020F3E770B5C2B083F00103009302AEC0
:1005F00004461546134649003246406904F0E3FBC1
:10060000C8B9A84218D0D4F82831B3F5807F10D0EB
:10061000D4F82031325C234483F82020D4F82031F0
:100620000133DBB2C4F82031D4F828310133C4F8E7
:1006300028310130E5E70025284642B070BD10B4EE
:10064000D0E9013401686210E40701EB020048BF01
:100650008A585DF8044B48BFD358184730B5044654
:10066000BDB00025206904F0B6FC0328FAD8DFE805
:1006700000F04A021212D4F8343203B19847D4F889
:100680002C22002AEED004F59671206904F0A7FC14
:10069000C4F82C52E6E7C4F82051F022C4F82451E3
:1006A0006946C4F82851206904F097FC0022824270
:1006B0001DDAD4F82831B3F5807F18D0D4F828316A
:1006C000B3F5807F11D0D4F820311DF802102344F7
:1006D00083F82010D4F820310133DBB2C4F8203184
:1006E000D4F828310133C4F828310132DFE7D4F8D7
:1006F0002831002BB6DDD4F83032002BB2D0D4F83C
:1007000028019847AEE701F023FFABE738B5002595
:100710004FF47A730446C0E901530D4B0360C0E9FE
:1007200004550176427629464FF48072203011F04C
:10073000BFF8C4F82051C4F82C52C4F82451C4F8AE
:100740003052C4F82851C4F83452204638BD00BF96
:10075000D04E020010B5122001F0BEFE0446132058
:1007600001F0BAFE214602460848FFF7CFFF1E20DF
:1007700001F0B2FE04461F2001F0AEFE2146024603
:10078000BDE810400248FFF7C1BF00BFDC100020E9
:100790001813002010B586B0C3688DF80F101868C4
:1007A000012203680092DC680DF10F010DF11703BF
:1007B000A0479DF8170006B010BDF8B5427A03684F
:1007C00004460E46CFB29B680D0A62B93946984777
:1007D000236860F307069B6829462046984760F324
:1007E0000F26B0B2F8BD29469847236860F30F265C
:1007F0009B6839462046984760F30706F1E713B532
:10080000C368186803680092DC680B46A04702B012
:1008100010BD70477047704773B543686D46994285
:10082000044685E806000E4604D1BDF8042003897D
:100830009A420FD0E3689DF804201868082104F05C
:1008400004FDE3683146186804F01CFD0098AB888D
:100850006060238102B070BDC36810B5044653B117
:10086000186840B103685B6898470421E06808F0A5
:1008700043FB0023E36010BD10B51421044608F0CB
:100880003BFB204610BD73B5C568044625B904205E
:1008900008F01CFBE0600560E3681B6883B9542026
:1008A00008F014FB4FF0FF3694F9123094F9102041
:1008B00094F911100096054604F082FCE3681D606F
:1008C00002B070BD38B50C2001F006FE05460B20C5
:1008D00001F002FE04460D2001F0FEFD094B0A4A1C
:1008E0001A60012100225A601A725972DA609874F3
:1008F0001D745C741846054A0549BDE8384008F087
:10090000DAB800BF54150020284F02000002002072
:100910001708010030B5A1F11004002500F00F0206
:10092000D3B2092ACCBF373330338B73CD7302393E
:100930008C424FEA1010F1D130BD222070470000E8
:1009400030B5012185B0192001F04EFE012119209A
:1009500001F08EFE4FF080430022C3F85C2503F5C2
:1009600088334FF48032C3F848230121C3F80823A9
:10097000212001F039FE0121202001F035FE012166
:10098000212001F075FE0121202001F071FE104BA5
:1009900001221A600F4A1368002BFCD00E4B002472
:1009A000C3F80045C3F800450C4B0FCB6D4685E8F6
:1009B0000F00234620464FF0FF3155F82320013326
:1009C000042BC2F80005C2F86015F6D105B030BDA1
:1009D0000420004044210040002000405C4F020001
:1009E00038B54FF0805504462146D5F8A800FFF7EA
:1009F00091FFD5F8A40004F11001FFF78BFF202030
:100A000038BD000072B64FF08043B022C3F81C25F9
:100A1000BFF34F8F0549064BCA6802F4E0621343E7
:100A2000CB60BFF34F8F00BFFDE700BF00ED00E0DC
:100A30000400FA05C3680BB19B681847704770B58E
:100A400090F8343105461446F3B90368DB699847DA
:100A500004F47063B3F5407F04F0F0030CBF07218A
:100A6000082104F00F02302B0CBF02230123012ABE
:100A700008D0901E42424241A869BDE8704000681B
:100A800004F0C4BD0222F7E770BD10B590F8343110
:100A900004462BB9A369186804F010FE0028F9D0A9
:100AA00010BD38B590F834510446A5B983695BB1DF
:100AB000186848B10368DB689847A3691D60042182
:100AC000A06908F019FAA5610023C4F82431C4F81C
:100AD0002831C4F82C3138BD13B590F834310446B0
:100AE0006BBBA369186804F0A9FD40B307F0AEFC26
:100AF000A3691868036801225B690DF10701984733
:100B0000D4F82C31B3F5807F16D0D4F82C31B3F55E
:100B1000807F11D0D4F824319DF80720234483F836
:100B20002420D4F824310133DBB2C4F82431D4F8C2
:100B30002C310133C4F82C3107F09EFCD1E702B010
:100B400010BD00007FB590F8343104460D46002BEF
:100B500034D1866926B9042008F0B8F9A06106608E
:100B6000A369186860BB4FF4867008F0AFF92B4694
:100B700094F9212094F92010064605F045F8A36960
:100B80001E6094F92220531C06D0A06994F92330EA
:100B90000068032105F048F8A369186870B10A4B92
:100BA00003930022094B019369460094029204F0DA
:100BB000A2FD039B13B19B686846984704B070BDC3
:100BC000294604F00FFDDCE76C4F0200D90A010052
:100BD00010B4D0E9013401686210E40701EB0200AF
:100BE00048BF8A585DF8044B48BFD35818470000E7
:100BF00008B590F834313BB1012001F099FC06486A
:100C0000BDE8084001F028BA82691AB113680033C0
:100C100018BF0123184608BD6C1D002070B504469E
:100C20000D4601F019FA30B12368294620461B6CA5
:100C3000BDE87040184770BDA0F5A070EEE7000059
:100C400013B590F834318DF8071004462BB1C9B2B2
:100C50000B48FFF7E3FF02B010BDA369186804F06A
:100C60002DFD0028F9D0A3691868036801221B69CB
:100C70000DF107019847013018BF0120EBE700BFD5
:100C80006C1D00202DE9F04107468846164601F00C
:100C9000E3F970B10024A6420CD9351B402D28BFC2
:100CA000402508EB04012A46384600F0BBFE2C44E0
:100CB000F1E704462046BDE8F081A0F5A070E1E729
:100CC00070B590F8343105460E4614462BB11048E5
:100CD000FFF7D8FF0446204670BDAB69186804F0E2
:100CE000EDFC0028F9D0AB691868D0F80831012173
:100CF0001B6B00F584709847AB691868036822463F
:100D00001B6931469847013008BF0024E3E700BF64
:100D10006C1D002030B50446C3B001F017F9D4F8BB
:100D20005832C3F5807398420546C4BFD4F8585270
:100D3000C5F580752A4601AB02A9204600F05CFF8C
:100D4000019902AB6D1A00221D44D4F85832B3F554
:100D5000807F19D08A4217D0D4F85832B3F5807FFB
:100D600010D0D4F85032A85C234483F85001D4F852
:100D700050320133DBB2C4F85032D4F85832013368
:100D8000C4F858320132E0E743B030BD38B504460C
:100D900000F0F0FA2046FFF7BDFFD4F85852204685
:100DA00000F0F0FA284638BDA0F5A070EEE700008C
:100DB00010B590F8343104462BB10648FFF7E6FF32
:100DC0000446204610BD07F041FBD4F82C4107F043
:100DD00053FBF6E76C1D002038B5044600F0CAFA54
:100DE0002046FFF797FFD4F858324BB1D4F854326D
:100DF000234493F85051204600F0C4FA284638BDE9
:100E00004FF0FF35F7E7A0F5A070E5E710B590F8D3
:100E1000343104462BB10B48FFF7DEFF0446204671
:100E200010BD07F013FBD4F82C313BB1D4F82801E6
:100E3000044494F8244007F01FFBF0E74FF0FF3420
:100E4000F9E700BF6C1D002038B5044600F092FAA7
:100E50002046FFF75FFFD4F85832A3B1D4F85432DC
:100E6000234493F85051D4F854320133DBB2C4F820
:100E70005432D4F85832013BC4F85832204600F0BE
:100E800081FA284638BD4FF0FF35F7E7A0F5A0708E
:100E9000DAE7000010B590F8343104462BB1114860
:100EA000FFF7D2FF0446204610BD07F0CFFAD4F872
:100EB0002C319BB1D4F82831234493F82400D4F882
:100EC00028310133DBB2C4F82831D4F82C31013B8E
:100ED000C4F82C31044607F0CFFAE4E74FF0FF34B2
:100EE000F9E700BF6C1D002008B54FF480720021A7
:100EF00010F0DEFC0022C0F80021C0F80421C0F888
:100F0000082108BD2DE9F047194C1A4F276000252C
:100F10004FF47A78C4E90158202604F12400C4E98A
:100F20000565E5614FF00109FFF7DEFF284684F80B
:100F3000349101F0D1FA8246484601F0CDFA0E4CC8
:100F4000FF2384F82100C4E9015804F1240027603C
:100F5000C4E90565E56184F820A084F8223084F8AE
:100F60002330FFF7C1FF84F83451BDE8F08700BF9C
:100F7000A0160020804F0200681500200020704756
:100F80007047704710B5D0F88C452CB123682046C7
:100F90005B689847A468F8E710BD38B5D0F88C4571
:100FA0000D4634B1236820469B6829469847A468BB
:100FB000F7E738BD004870474050020010B5054BB8
:100FC0000360044606F027F9204606F03DF9204666
:100FD00010BD00BFC04F020010B50446FFF7EEFF82
:100FE00020464FF4B26107F087FF204610BDF7B5E9
:100FF000D0F88C4505460E460023A4B1236831463F
:10100000DF680DF1030201AB2046B8479DF80310DD
:101010000429034605D0019A284605F059FB03B080
:10102000F0BDA468E9E7019A9DF80310F4E770B5F4
:1010300005460E4622B10021BDE8704005F054B9C6
:10104000D0F88C455CB1236800221B6931462046EC
:10105000984710B101212846EEE7A468F2E721463F
:10106000F9E770B5D0F88C450E46054600213CB135
:101070002368314620465B699847A4680146F6E735
:101080002846BDE8704005F023BAF8B5D0F88C4585
:1010900005460E4617463CB1236820469B693A46F2
:1010A00031469847A468F6E728460121BDE8F84094
:1010B00005F06CBA70B5002186B0044605F004FD59
:1010C0000023ADF8063023898DF810301B0AA18863
:1010D000E2888DF811304FF4897540F20123ADF8A4
:1010E0000450ADF81230022540F20313EF268DF8BC
:1010F00007508DF809508DF80C100125090A8DF85C
:101100000E20ADF81430120A04F10A038DF80860BD
:101110008DF80A508DF80B008DF80D108DF80F200A
:1011200001AD05AE1C462A4603CAB242186059609A
:10113000154603F10803F6D112881A80204606B03E
:1011400070BDF8B5002406460D462746304610F01F
:1011500097FFA04207D9335D05F8143005EB44032F
:1011600001345F70F2E7400000F0FE00F8BD38B5D2
:10117000D0F88C55044635B12B6828461B6A984731
:1011800010B9AD68F7E7284640F20233A4F84835B5
:1011900004F24A51FFF7D5FF94F84835184484F813
:1011A000480504F5A96038BD40F2023310B500F2DD
:1011B0000A510446A0F808350548FFF7C2FF94F825
:1011C0000835184484F8080504F5A16010BD00BF77
:1011D000AC4F020040F2023310B50446A0F8C83408
:1011E00000F2CA40FFF7FCFB94F8C834184484F8B6
:1011F000C80404F5996010BD2DE9FF4100238DF866
:101200000A3090F888351B4A8DF808300123019286
:101210008DF809303222C0238DF80B308DF80C2068
:1012200001AB044600F54E7803CBC4F83803C8F888
:10123000041088F80820D4F88C6509258EB133682D
:1012400000211B6830469847478805F54E73093FD3
:1012500000F109013A46E01810F02CFA3D44B66856
:10126000ECE784F83A5340462D1284F83B5304B01F
:10127000BDE8F0810902FFFF73B504460D4616462E
:1012800008F094FB4FF480730093014633462A46DE
:10129000204605F0DFFB024B2360204602B070BD04
:1012A000C04F020010B5D0F88C350446A3B9C0F881
:1012B0008C1594F888350B7194F888354A79134465
:1012C00084F888350B6808465B6A98472389184478
:1012D0002081012010BD13469A68002AFBD1996035
:1012E000E7E71FB5044605F0AFFB0146684604F08A
:1012F00057FD4021684604F0C5FDD4F88C4534B153
:1013000023682046DB6969469847A468F7E7684682
:1013100004F04DFD04B010BD10B50446FFF7E1FF29
:101320002046BDE8104005F000BB000010B50D4C94
:101330002378BFF35B8FDB0712D4204607F0CEFB88
:1013400070B148F25A0242F241310748FFF794FF68
:10135000204607F0E5FB054A0549034807F0ABFBCB
:10136000014810BDD8170020DC1700200002002023
:10137000BD0F010010B5FFF7D9FF0368BDE81040AD
:101380005B6F184710B5FFF7D1FF0368BDE8104049
:101390009B6F184710B5FFF7C9FF0368BDE8104001
:1013A000DB6F184704F080BE04F094BE04F06CBEFE
:1013B000704770477047436A93F878007047D0F8D9
:1013C000240170470120704700487047985102007F
:1013D0002DE9F04F044697B00F464B22002103A899
:1013E00010F066FAD4F82431267994F80EA094F817
:1013F0000C90002B06F10105637B019314BF0520BF
:101400000020EDB2002F40F0978040F20923ADF8A4
:101410000C304FF48173ADF8103080238DF8133009
:1014200032238DF8143008238DF815300B23012159
:101430008DF816308DF8250040F2022342F2054067
:101440004FF0240C4FF0090E04274B22ADF8183052
:101450008DF8211002238DF82410ADF826004FF0EE
:10146000100805208DF82A108DF82D108DF82F10FA
:101470004FF0030B06218DF80E208DF817608DF8C4
:101480001A308DF81DE08DF81F608DF822308DF830
:1014900023308DF82B008DF82CC08DF831C08DF8DD
:1014A00032308DF833108DF834008DF835C08DF85A
:1014B0001E708DF829808DF82EB08DF830708DF863
:1014C000361007218DF839108DF8491044F20201C9
:1014D000ADF84C1040F20751ADF850101D349DF896
:1014E00004108DF837608DF838508DF83A008DF87B
:1014F00042508DF84A008DF852108DF8533044F266
:101500000306402340F6022503A920468DF83BA0A0
:10151000ADF83C608DF83F808DF840E08DF841706B
:10152000ADF844508DF84B908DF8543010F0C2F85F
:10153000204617B0BDE8F08F0020FAE738B5054621
:101540000A4B45F8D03B0446FFF7F0FE05F063FE7A
:10155000284604F031FD04F17C0004F02DFD04F177
:10156000700004F029FD204638BD00BF585102002C
:1015700010B50446FFF7E2FF20464FF4947107F0E0
:10158000BBFC204610BDFFF705BF000010B5034BA4
:101590000360044604F08CFB204610BD8850020016
:1015A00010B50446FFF7F2FF2046282107F0A4FCFF
:1015B000204610BD10B5034B0360044604F078FBD1
:1015C000204610BD5850020010B50446FFF7F2FF48
:1015D0002046342107F090FC204610BD10B5034B87
:1015E0000360044604F064FB204610BD7050020006
:1015F00010B50446FFF7F2FF2046382107F07CFCC7
:10160000204610BD38B51C4B0D461968C0F80F10A8
:1016100099889B7943750446A0F813104022022153
:10162000284604F025FC402220730221284604F0BD
:1016300024FC402260730321284604F019FCA073A7
:10164000284604F0B5FB20B9AF220C490C4806F03F
:101650004DFE002304F18502C4E9322304F1D902CE
:1016600084F8783084F8843084F8D830C4F81C21A9
:10167000C4F8203138BD00BFA4500200335102002D
:101680003E5102002DE9F34104460E461546FFF790
:1016900081FEF28823799A4237D1002D35D17778AF
:1016A000012F2ED1F378202B27D13289072A24D17C
:1016B00004F10F0804F11605294640460FF0C8FF53
:1016C000D0B1D4F81630C4F80F30207CE17B638BA6
:1016D000A4F8133001EB0021607CE57C237F0095AA
:1016E00001EB00412568A07C637501EB0061237D5F
:1016F000627D6D6B2046A8473D46F378212B08BFDD
:101700000125284602B0BDE8F0810025F9E710B5B3
:101710000446FFF73FFEFFF709FE217B05F018FCAA
:1017200004F18503C4F8C8300023C4F8CC3084F831
:10173000843004F17C0004F0F4FB94F884302BB97D
:1017400023682046DB6BBDE81040184710BD000041
:1017500070B50446FFF71EFED4F820512DB140F2BB
:10176000DD120F490F4806F0C1FD04F1D903C4F89A
:101770001C31FFF7DBFD617B05F048FB84F8D85096
:10178000C4F8200104F1D00004F0CBFB94F8D83069
:101790002BB9236820469B6BBDE87040184770BD8D
:1017A00033510200B050020010B4D0E90134016896
:1017B0006210E40701EB020048BF8A585DF8044B51
:1017C00048BFD35818470000F0B5044687B002ADB3
:1017D000FFF7E0FD0026FFF7A9FDA17B009503239D
:1017E0004022059605F0BAF82846FFF723F9FFF7DF
:1017F0009DFD164B217B164F00954022CDE9033607
:1018000002230597029405F0A9F82846FFF712F97C
:10181000FFF78CFD0F4B617B00954022CDE903362D
:1018200002230597029405F099F82846FFF702F97C
:10183000FFF77CFD4023D4F81C21617B05F088FA7A
:10184000012084F8D80007B0F0BD00BF0F170100D9
:10185000985002005117010038B50223437100234C
:1018600083600C4B044640F8703B154604F04CFB7B
:1018700004F17C0004F048FB04F1D00004F044FBC8
:10188000C4F82451FFF752FD2146FFF70BFD204617
:1018900038BD00BF5851020070B504460D46FFF731
:1018A00079FD84F87850002D3ED194F8843033B11E
:1018B000FFF73CFD217B05F023F984F8845004F107
:1018C000850304F17C0600253046C4F8C830C4F80E
:1018D000CC5004F026FB304604F01CFB28B9154917
:1018E00015484FF4A27206F001FD94F8D83033B1D8
:1018F000FFF71CFD217B05F003F984F8D85004F1B3
:10190000D903C4F81C3104F1D00500232846C4F8DB
:10191000203104F006FB284604F0FCFA20B94FF40D
:10192000A77204490548DEE704F17000BDE8704085
:1019300004F0F7BA33510200BE500200CF5002004B
:1019400010B50446FFF726FD20460021BDE81040F3
:10195000FFF7A2BF38B50D460446FFF71BFD042D67
:1019600005D020460021BDE83840FFF795BF38BDBF
:10197000F8B5164604460D461F46FFF70BFD042337
:101980003370EA8823799A4225D16978012922D1D6
:10199000EA78212A08D0222A0BD0202A4FF0000012
:1019A0001BD13070163401E031700F343C600720D9
:1019B000F8BDAB8813F0010308BF19462046FFF7B6
:1019C0006BFFAB8803F00103E366AB8803F002030F
:1019D000A366022333700020EAE703233370E7E7AE
:1019E00010B58AB00446FFF7C5FC684604F054F908
:1019F0000A4B0093694604F17000099404F0A9FAB7
:101A00002046FFF7BFFC064B00211A68684604F029
:101A10008DF96846FFF7BAFD0AB010BD8850020084
:101A2000AC50020070B58EB0154604460E46FFF766
:101A3000A1FC01A804F030F90E4B0C9501A900257A
:101A400004F17C000193CDE90A468DF8345004F08E
:101A500080FA2046FFF796FC074B29461A6801A832
:101A600004F064F901A89DF83440FFF7A3FD204677
:101A70000EB070BD58500200AC50020010B50446C4
:101A8000FFF788FC94F884307BB9D4F8CC3063B18C
:101A9000FFF74CFCD4F8CC30217B04F1850205F033
:101AA000F5F910B1012384F8843010BD2DE9F84315
:101AB0001E460446894690469DF82070FFF75AFC62
:101AC0000023336094F87830E3B194F88430CBB9D4
:101AD000D4F8CC50C5F14005454528BF4546B8F17E
:101AE000000F05D02A464946D4F8C8000FF0E2FDA1
:101AF000D4F8CC302B44C4F8CC30356017B1204634
:101B0000FFF7BCFF2046BDE8F843FFF73BBCF0B54C
:101B10000446406A90F8785085B001262DB984F8C3
:101B200030503546284605B0F0BD04AB002743F8D9
:101B3000047DD4E90A120096FFF7B8FF0399E36A1F
:101B4000A26A5B1A0A44E362A26213B984F83060A5
:101B5000E8E7606AFFF792FF3D46E3E72DE9F043CF
:101B60001C4691B0904606468946FFF703FC002CC0
:101B700008BF01AC4FF00005256002A80CBF01278B
:101B8000002704F089F8104B029302A906F1D00057
:101B9000CDE90D84CDE90B698DF83C708DF83D5091
:101BA00004F0D7F93046FFF7EDFB084B29461A68D9
:101BB00002A804F0BBF802A89DF83D40FFF70EFD17
:101BC000204611B0BDE8F08370500200AC50020016
:101BD00010B5D0F8203104466BB990F8D83053B91D
:101BE000FFF7A4FB402304F1D902617B05F0B0F8B4
:101BF000012384F8D83010BD70B51E46044600237A
:101C0000336094F878300846EBB194F8D830D3B903
:101C1000D4F82051D4F81C11954228BF15462A4605
:101C20000FF048FD3560D4F81C31D4F820212B4446
:101C3000551BC4F81C31C4F8205125B92046BDE815
:101C40007040FFF7C5BF70BD37B50446406A90F8D5
:101C500078502DB984F835500125284603B030BDA1
:101C600002AB002243F8042DD4E90A12FFF7C4FFA7
:101C70000199A26A0A44A262226B13680B441360A2
:101C8000E36A01995B1A94F83410E36209B91268A7
:101C900002B91BB9012384F83530DEE7606AFFF72B
:101CA00097FF0025D9E76FF01500704700290CBF9A
:101CB0006FF0180000207047012070476FF015008A
:101CC00070476FF0150070471120704770477047DC
:101CD000704703689B6C1847A0F5A070F9E7704740
:101CE0007047704770470368184710B504460120D5
:101CF00000F01EFC94F8780010BDA0F5A070F4E789
:101D000038B54FF0FF320123FF210B480B4D07F090
:101D10007BFA00F0FBFB044695F878301BB10120FC
:101D200000F006FCF8E700F0F1FB001BC728F6D92D
:101D3000BDE83840FEF766BE242000206C1D002060
:101D400007B502AB012243F8041D1946FFF76AFEEE
:101D500018B1019803B05DF804FB4FF0FF30F9E7CC
:101D6000A0F59470FFF7ECBF07B502A9002301F8B6
:101D7000013D0122FFF7F2FE20B19DF8070003B0FC
:101D80005DF804FB4FF0FF30F9E7A0F59470FFF722
:101D9000EBBF2DE9F8430446884617461E46089DCA
:101DA000FFF7F8FAD4F87092B9F1000F04D02B467F
:101DB000324639464046C847C4F86082C4F8647267
:101DC000C4F86862C4F86C52BDE8F88370B5064682
:101DD000FFF7E0FA06F51D740025D6F8B432AB42E1
:101DE00008D92046103454F8043C1BB11B689847AE
:101DF0000135F2E770BD0000B0F5966F03D1012107
:101E0000014807F0E3B970472420002010B4D0E95E
:101E1000013401686210E40701EB020048BF8A58F0
:101E20005DF8044B48BFD35818470000114B03F12D
:101E3000780270B50360C0F8282103F1D802E833B6
:101E40000446C0F82C21C0F8403100F51D7600F59D
:101E50002D75AE4204D0103D2846FEF7EBFDF8E7A5
:101E600004F5947005F01EFF2046FFF767FB20463F
:101E700070BD00BFD8510200A0F59470FFF7D6BF27
:101E8000A0F59670FFF7D2BF10B50446FFF7CEFF5E
:101E900020464FF42E7107F02FF8204610BDA0F514
:101EA0009670FFF7F1BFA0F59470FFF7EDBF00004B
:101EB000F7B5044615461F460E4607F077FDBDF8F8
:101EC00024300193BDF8203000932A463B4601465A
:101ED0002046FFF7C1FC002104F5947005F0B8FE20
:101EE0004FF47A73C4F84831174B236003F178023A
:101EF0000025C4F8282103F1D802E833C4F82C21C6
:101F0000C4F84451C4F840314FF48072294604F5B6
:101F1000A8700FF0CDFCC4F85052C4F88052C4F839
:101F20005452C4F89052C4F85852C4F8A052C4F89D
:101F3000B052C4F8B452C4F8705216B12046FFF73C
:101F40004FFD204603B0F0BDD851020038B505461C
:101F5000FFF710FA95F8D8304BB9D5F82041402C4E
:101F600028BF40242846FFF70DFA204638BD00243C
:101F7000F8E7000070B5044686B0FFF7FBF92D4B7B
:101F8000C4F870322046FFF7FDF92B4B05932B4B1D
:101F900003932046002302940493FFF7EBF9D4F84F
:101FA000B452032D13D804EB05166B1C06F51D76F1
:101FB000C4F8B4323046FEF73DFD04EB0515059B31
:101FC000C5F880321BB15B6802A9304698472046AD
:101FD000FFF7D8F902A8FEF72DFDBC2006F076FF2A
:101FE0000026174B0360054631460661403007F076
:101FF00093F905F1540007F02DF9124B00934FF4BB
:10200000807233462846182107F020FA0E4B0593BC
:102010000E4BC4F85C5202A92846CDE9023604965C
:1020200007F020FA02A8FEF705FD2046FEF772FE33
:1020300006B070BDF91D0100B0510200150D010080
:1020400080680200C8510200BC510200011D01005D
:10205000A0F5A070FFF78EBF90F8780070470000E1
:1020600037B50F4C0F4D204607F0A6F82A460E490B
:10207000204606F020FD0D4C42F212030122CDE96C
:102080000032002211464FF4F8532046FFF710FFAC
:1020900007492A46204603B0BDE8304006F00BBD94
:1020A0002420002000020020D39101006C1D00209C
:1020B0002D1E010008B50EF031F92DE9F04F027D1B
:1020C000012A85B005460E4640F0908000214FF071
:1020D000FF3B04460B465F4694F804C048B2BCF18F
:1020E000000F75D194F805C0BCF1000F70D1B7F1A5
:1020F000FF3F1BBF01335BB201233846934201DD32
:102100001A4683460131082904F102045ED10024F5
:1021100002EB0B03A1460293CB4502DC029B4B452D
:1021200059DC95F8058095F804A04FEA28170AF0C5
:102130000F03FAB25FEA2A1A019208F00F0870D072
:102140005FFA8AF1BAF1090FD4BF30315731304606
:10215000039300F0C6F8039B0444092B94BF03F1DA
:10216000300103F157013046039300F0BAF80444FC
:10217000BAF1000F02D1039B03B94FB1092F019FA0
:10218000D4BF30375737F9B2304600F0AAF80444CC
:10219000B8F1090F94BF08F1300108F1570130463A
:1021A00000F09FF8B9F1070F044404D03A213046FB
:1021B00000F097F8044409F10109B9F1080F05F19D
:1021C0000205A9D1204605B0BDE8F08F074683E798
:1021D0004FF0FF3096E7CB45EDD1BBF1000FE5D1D5
:1021E0003A21304600F07DF80444DFE700F11007A3
:1021F00000F11309002417F8011B0A22304600F0F1
:102200009DF82E218046304600F06BF8B9454044D9
:102210000444F0D10A22E97C304600F08FF80444EF
:10222000D0E7002B99D1A8E710B5054B0360044611
:1022300001751022002104300FF03AFB204610BD3A
:10224000F452020070B5074D0560837400259DF8B7
:102250001030057545608560C56001744274C374B3
:1022600070BD00BFF452020007B501210648FFF718
:10227000DBFF002300931A4619460448FFF7E2FFEC
:1022800003B05DF804FB00BF382000205020002080
:102290002DE9F04106460D4601EB02080C46444587
:1022A000A4EB050707D0336814F8011B1B68304600
:1022B00098470028F3D13846BDE8F08170B5044650
:1022C00008460D460FF0DCFE2368024629462046EC
:1022D0005B68BDE87040184709B1FFF7EFBF0846DB
:1022E000704703681B68184770B58AB00D460AA985
:1022F000002301F8043D012A98BF0A22B5FBF2F43D
:1023000002FB1456F3B2092E94BF30333733DBB2DD
:10231000254601F8013D002CF0D1FFF7DDFF0AB0A2
:1023200070BD10B42AB903685DF8044B1B68C9B2CC
:102330001847D2B25DF8044BFFF7D6BFFFF7F1BFE5
:1023400010B50446006808B10EF06AFE204610BDC4
:1023500010B50446006808B10EF062FE0023236049
:10236000C4E9013310BD38B504460D46006801319B
:102370000FF0FEFA10B1C4E90005012038BD036872
:1023800010B5044623B143688B4201D3012010BD30
:102390002046FFF7E8FF0028F9D0A368002BF5D10D
:1023A00022681370F3E770B50E46114604461546D1
:1023B000FFF7E5FF20B92046FFF7CAFF204670BDB2
:1023C0002A463146A56020680FF074F92268A36898
:1023D0000021D154F2E738B500230446C0E90033A8
:1023E00083600D4639B108460FF04AFE2946024681
:1023F0002046FFF7D8FF204638BD38B505460846C9
:102400000C460FF03DFE214602462846BDE8384006
:10241000FFF7C9BF884210B50B46044604D00968CF
:1024200021B19A68FFF7BFFF204610BDFFF790FF6C
:10243000FAE710B500230446C0E900338360FFF7D4
:10244000E9FF204610BD10B5044619B1FFF7D5FFCE
:10245000204610BDFFF77CFFFAE703680A460968CB
:1024600063B141B9806860B118787047906840B135
:1024700008784042704718460FF086BC0029F5D115
:102480000846704708B582688B689A4205D1FFF705
:10249000E4FFB0FA80F0400908BD0020FCE700002E
:1024A00010B500F047F8FEF74BFAFEF73FFFFEF7D6
:1024B00033FF4FF4E1310648064CFFF75BFDFDF7B3
:1024C0004DFFFDF7CDFE002CFBD0AFF30080F8E709
:1024D0006C1D00200000000010B50446FEF72DFA28
:1024E00084423BBF2401024B4FF0FF30185710BD10
:1024F0000402002010B5044603F032FA204610BD55
:1025000010B5044603F02CFA204610BD07B5074964
:10251000684603F062FA4FF47A720023DDE90001A5
:102520000DF02CFD03B05DF804FB00BF6820002017
:1025300006F022BF08B5044803F01CFA0348BDE8C2
:10254000084003F017BA00BF802000206820002058
:1025500006F022BF38B50A4C0A4D204603F07AFA3D
:102560002046094C09492A4606F0A5FA204603F000
:102570007CFA2A4620460649BDE8384006F09BBA58
:10258000802000200002002068200020012501009A
:10259000F524010008B590F900305A1C04D121221D
:1025A0000E490F4805F0A2FE012259B11F2B86BF2C
:1025B00003F01F030B494FF0A04102FA03F3C1F8E7
:1025C000083508BD1F2B86BF03F01F0305494FF0D8
:1025D000A04102FA03F3C1F80C35F2E76F53020091
:1025E0007D530200000300502DE9F84304460F46D6
:1025F000FEF7A3F9844236D21C4D4FEA041805EBCE
:102600000802D06810B1012106F076FC2046FFF7E1
:1026100063FF8146012006F059FC002606704946FA
:10262000044604F011FF05EB0803012FDC6010D015
:1026300006D3022F12D0204602F021FB012103E035
:10264000204602F01CFB31462046BDE8F84302F06C
:1026500023BB2046BDE8F84302F004BB204602F04D
:102660000EFB0321F0E7BDE8F88300BF0402002061
:10267000F7B506460F46FEF760F986421BD20F4DAE
:1026800005EB0615EC687CB93046FFF725FF0646DA
:10269000012006F01BFC0023044603700122009772
:1026A000314604F0E9FEEC603946204603B0BDE84F
:1026B000F040FFF76FBF03B0F0BD00BF0402002081
:1026C0001EF0040F0CBFEFF30880EFF3098081695F
:1026D00011F8021C002932D101B590E80F10E04733
:1026E000BDE800508CE80300244B93E806009142BB
:1026F00008BF70471A6041B91EF0100F10D1204B6F
:10270000186820F0010018600AE02CE9F00F1EF0B4
:10271000100F08BF2CED108A81F822E0C1F838C0F4
:10272000906B92F8221061F0FF0E1EF0100F08BFA0
:10273000B0EC108AB0E8F00F80F309887047114AB6
:1027400013689942FAD801B552F821C00FC8E04782
:10275000BDE80050CCF80000704701B501F030FB37
:10276000BDE80140EFF3098CBEE701B501F0ECFADA
:10277000BDE80140EFF3098CB6E700003804002003
:1027800034EF00E05C54020008B5014630B96FF048
:10279000030000F0EEF96FF0030008BD132001F014
:1027A000C9FE30B94FF0FF3000F0E3F94FF0FF30D1
:1027B000F3E70020F1E7000008B5EFF305832BB93C
:1027C000EFF3108313B9EFF3118333B16FF005000A
:1027D00000F0CFF96FF0050008BDDFF808C000DF9A
:1027E000FAE700BF89270100EFF310832BB9EFF35D
:1027F0001180003818BF0120704701207047000089
:1028000038B50546A0B1846802686CB114F00303C2
:1028100002D1C1680F2926D86FF00801002002F00C
:10282000D7F80024204638BDC368002BF4D11546E4
:10283000104BD3F8900078B100F0FAFB0446A0B139
:102840000123A3700023C4E90233F322094B227051
:10285000094A65605A66E5E7D3F880000122102135
:1028600000F06EFBEAE71546EBE76FF0040102F0BB
:10287000AFF8D7E724040020E5280100930710B53E
:1028800002F0010422D400F10C0384B153E8000FDC
:1028900000EA01028A4203D0BFF32F8F002005E037
:1028A00020EA010243E8002404B1EFE710BD53E839
:1028B000000F084203D1BFF32F8F002005E020EA6C
:1028C000010243E8002404B1F1E7EFE7C06801EA40
:1028D00000031CB1994218BF0020E7E7002B08BF96
:1028E0000020E3E7F8B58468054604B9F8BD94F81C
:1028F0002320616AA7682846FFF7C0FF064638B163
:10290000204601F0D6FB00223146204601F06AFD48
:102910003C46EAE7F8B50D4617461E46044620B188
:102920000378F32B01D1002907DA20466FF0030169
:1029300002F04EF86FF00300F8BDFFF79FFF00288C
:10294000FAD186B13146432001F0F4FD40B1074B86
:102950005E692046314601F091FB756286F823706E
:102960006FF00100E8E76FF00200E5E724040020C3
:1029700070B5054610B10378F32B07D028466FF0E9
:10298000030102F025F86FF0030070BD836863B1A6
:10299000284601F085FB00226FF0020101F022FDC4
:1029A000A8680028F4D101F003FCAB78002613F0EE
:1029B00001032E700FD0094BD3F89040294624B163
:1029C000204600F04FFB3046DFE7D3F8800000F0F0
:1029D000EBFA2046D9E71846D7E700BF24040020C9
:1029E0002DE9F041064620B10378F32B01D10029EF
:1029F00009DA6FF00301304601F0EAFF6FF00305DA
:102A00002846BDE8F08100F10C0353E8002F42EAAC
:102A1000010543E8005000B1F7E7B4681CB920464F
:102A200001F0C6FBECE794F82320616AD4F8088033
:102A30003046FFF723FF074678B194F823309B0711
:102A400056BF656A054620EA0505204601F031FBC0
:102A500000223946204601F0C5FC4446DEE700006E
:102A600008B50246EFF3058333B100206FF005018E
:102A700001F0AEFF002008BDFFF7B6FE0028F4D13C
:102A8000DFF808C0104600DFF5E700BF01280100AD
:102A900038B50246EFF305834BB192B96FF00301ED
:102AA000104601F095FF6FF00304204638BDFFF794
:102AB0009BFE0028F1D1DFF830C0104600DF04464D
:102AC000F3E71378F32BE9D10029E7DB02F10C03DC
:102AD00053E8000F40EA010443E8004505B1F7E779
:102AE000104601F0B5F9E0E7E129010038B50446E8
:102AF0001D46EFF3058343B18CB920466FF0030107
:102B000001F066FF6FF0030038BDFFF76DFE00288F
:102B1000F2D1DFF828C020462B4600DFF4E7237807
:102B2000F32BEAD1002DE8D10029E6DB2046FFF7A0
:102B3000A5FE002808BF6FF00200E5E71529010097
:102B400008B50246EFF305833BB110466FF005016F
:102B500001F03EFF6FF0050008BDFFF745FE0028BD
:102B6000F3D1DFF808C0104600DFF5E77129010056
:102B700070477047EFF310832BB9EFF311800038E3
:102B800018BF01207047012070470000064BDA6A29
:102B90003AB1D0695B6C1BB11B69984228BF1846DB
:102BA00070474FF0FF30F5E72404002070B5464C25
:102BB000237A012B00F0858033B14FF0FF3001F014
:102BC000FBFE4FF0FF3070BD404DD5E90B61EB6867
:102BD000E3652B8AA4F854303046AB68236400F0D8
:102BE00097F908B1C4F88060D5E90561304600F076
:102BF0008FF908B9D4F880606667D5E90761304677
:102C000000F086F908B9D4F88060A667D5E90961B3
:102C1000304600F07DF908B9D4F88060E6676E6B45
:102C20003EB1D6E902233168304600F0E0F9C4F83D
:102C30008460AE6B3EB1D6E902233168304600F0C5
:102C4000D6F9C4F88860EE6B3EB1D6E9022331684C
:102C5000304600F0CCF9C4F88C602E6C3EB1D6E959
:102C600002233168304600F0C2F9C4F890606E6CFF
:102C70003EB1D6E902233168304600F0B8F9C4F815
:102C80009460AE6C3EB1D6E902233168304600F064
:102C9000AEF9C4F89860EE6C3EB1D6E90223316813
:102CA000304600F0A4F9C4F89C602D6D3DB1D5E923
:102CB00002232968284600F09AF9C4F8A05001239D
:102CC000237200207FE700BF24040020EC530200A1
:102CD00070B5254D2B7A012B07D06FF0060001F05F
:102CE0006BFE4FF0FF34204670BD01F057FC10B969
:102CF0004FF0FF30F3E71D4A1D4E1E497068FF2359
:102D000082F8223092F82230D26863F0FF03DB436E
:102D100014BFB3FA83F32023C3F12003C2F30222CA
:102D2000934298BF531CFE2202FA03F30F4ADBB210
:102D3000D37701F09DFE04460028D9D101F0ECFEC6
:102D4000286101F0D5FE0C4801F0AAF901F028FA3B
:102D50003368DB074CBF0223032383F31488BFF3DC
:102D60006F8F02232B72BEE72404002000ED00E0E9
:102D7000EC5302006B2701004004002010B50F4CFB
:102D8000237A022B13D101F0BBFE01236372BFF340
:102D90004F8F0B4A5168C90042BF4FF0006151602C
:102DA000A37204232372BDE81040FFF7EFBE6FF05B
:102DB000070001F001FE002010BD00BF2404002028
:102DC00000ED00E038B51E4C237A042B054635D1C2
:102DD000FFF7DCFEE26AA842034694BF00F1FF332E
:102DE0002B4612B1D069C01AD061626C12B1106961
:102DF000C01A1061E06803440544E360E368AB4235
:102E000013D102230020237201F0D2F90023637250
:102E1000BFF34F8FA27A22B1A3720A4B4FF08052B8
:102E20005A60BDE8384001F063BE0133E36001F051
:102E30007DF9236D002BE1D09847DFE738BD00BF57
:102E40002404002000ED00E0704738B504460D462C
:102E5000FFF78EFE29462046BDE8384001F06EBDE2
:102E600008B5FFF7F1FFEFF3058333B16FF005000D
:102E700001F0A2FD6FF0050008BDFFF77BFE002802
:102E8000F4D1DFF808C000DFF6E700BFAD2B01008A
:102E900008B5EFF3058333B16FF0050001F08CFD49
:102EA0006FF0050008BDFFF765FE0028F4D1DFF8DC
:102EB00008C000DFF6E700BFD12C010008B5EFF332
:102EC00005832BB16FF0050001F076FD002008BDF1
:102ED000FFF750FE0028F5D1DFF804C000DFF6E769
:102EE0007D2D010008B50246EFF305832BB1BDE847
:102EF00008406FF0050001F05FBDFFF73BFE0028C2
:102F0000F5D1DFF808C0104600DF08BDC52D01006F
:102F100010B598B140EA010313F007030ED1172949
:102F20000AD90160083910220C18846042600B50E5
:102F300081684A60C3600123184610BD0023FBE787
:102F4000F0B578B399B132F003032BD10F3121F0F2
:102F5000070700F108052B462D685C68E91A24F084
:102F60000304091B8F4204D929680029F3D10846BC
:102F7000F0BD466804683E44466020440838416815
:102F80008E4288BF466058683A4318B95A6003F1C8
:102F90000801ECE720F0030019181D504A60196081
:102FA0000831E4E70021E2E730B590B1D9B1A1F1F1
:102FB000080500F108040022AC420BD151F8043C92
:102FC00023F0030443681B1B436042B941F8042CFF
:102FD000012030BD236822463BB11C46ECE751F886
:102FE000083C1360F4E70846F3E71846F1E730B50C
:102FF000C0B189B1C2B1CBB10024C0E9014202FB2A
:1030000001F41D190160C36043610561184601396F
:1030100004D1A21A99500121084630BD85180560D7
:103020002846F4E70146F7E71146F5E71946F3E7C6
:1030300010B50346A8B100F1140252E8000F10B910
:10304000BFF32F8F04E0016842E8001404B1F4E7F5
:1030500038B1043353E8002F511C43E8001404B185
:10306000F8E710BD30B5F0B1C3688B421BD80369D7
:103070008B4218D900F114031A680A60BFF35F8FFE
:1030800053E8002F0C689442F6D143E8001505B1CF
:10309000F2E7043050E8003F5A1E40E8002101B139
:1030A000F8E7002030BD6FF00300FBE7EFF310837B
:1030B0002BB9EFF31180003818BF012070470120B1
:1030C0007047036B30B5E3B1CD780024DA78AA42BB
:1030D0000FD31A46C1E901248AB19160A4B161609D
:1030E000283050E8003F5A1C40E8002101B1F8E7C1
:1030F00030BD5A681C46002AECD01346E6E7C16290
:10310000ECE7C1E90133C1620163E9E7D1E90132CA
:1031100023B19A608A681AB153607047C262F9E7B6
:1031200003637047F8B5877804468FB3C5680146D6
:103130000027284605F10C06FFF7E8FF2770304608
:10314000FFF790FFAB68002B48D03046FFF770FFC9
:103150000446002842D0284600F0A2FF3A46064620
:10316000394601F03FF9304601F010F86A6A81688B
:10317000064604F10C000EF09DFAF9232370A770A7
:10318000F368E37021462846BDE8F840FFF799BF91
:103190008568AB68002BF5D05B78832BF2D128468D
:1031A00000F07EFF3A460646394601F01BF93046EC
:1031B00000F0ECFF06466A6A806804F10C010EF02C
:1031C00079FAF3680BB1E2781A7000232370214674
:1031D00005F10C00BDE8F840FFF744BFF8BD000062
:1031E0002DE9F0410C4617469846054618B103787C
:1031F000FA2B00D141B928466FF0030101F0FEFB24
:103200006FF00300BDE8F0818368C3B15B78832B66
:1032100015D100F045FF01220646002101F0E2F839
:10322000304600F0B3FF06466A6A806821460EF019
:1032300041FAF0680028E5D007700020E2E705F1C8
:103240000C00FFF7F5FE064670B121466A6A0C30A5
:103250000EF030FA0024F9233370B470F770314661
:103260002846FFF72EFFE8E7B8F1000F10D04146DF
:10327000932001F05FF940B1074B2846596900F0EF
:10328000FDFEEFF30983C3E902476FF00100B9E7E0
:103290006FF00200B6E700BF240400202DE9F84FCC
:1032A0008846074638B131B1B0FA80F3B1FA81F1FE
:1032B0000B441F2B06DC6FF00301002001F09EFB86
:1032C000002470E008F1030626F003060C3606FB26
:1032D00000F9F2B194683CB1A30702D1D368332B53
:1032E00005D86FF00801E8E7D368002BF9D1D2E9DF
:1032F0000453D2F800A03DB115F0030B01D199455C
:1033000054D96FF00901D8E7002BFAD11CB19B46C4
:103310000CE092461546274BD3F8A000D8B1FFF732
:1033200087FE0446A0B14FF0010B35BB214B0022B4
:10333000D86F4946FFF704FE0546C0B9BBF1000F40
:1033400006D01C4BD3F8A000214658B1FFF78AFEE7
:103350006FF00401B1E7D3F8800001223421FFF7B8
:10336000EFFDDEE7D3F88000FFF71EFEF0E74A46E8
:1033700000210EF09DFA4BF0020BFA23237000237C
:10338000C4E90983C4E90B33A36032462B4684F8B1
:1033900002B0C4F804A0394604F10C00FFF727FE80
:1033A000044B054A1A672046BDE8F88F002CE4D18B
:1033B000B1E700BF240400202531010010B500F161
:1033C000280353E8002F12B9BFF32F8F04E0511EDA
:1033D00043E8001404B1F4E70AB9002010BDC06A44
:1033E00001230028F9D0821CD2E84F1FC2E8443FD5
:1033F00004B1F9E711F0FF0FF0D08068F1E70000A9
:103400002DE9F0410F4615469846044618B1037859
:10341000FA2B00D141B920466FF0030101F0EEFA1A
:103420006FF00300BDE8F081FFF7C8FF06460028F3
:103430003AD001462046FFF769FE626A06F10C01A8
:1034400038460EF037F90DB1F3782B70002504F1F2
:103450000C07357031463846FFF704FEA3680BB9F8
:103460000020DFE73846FFF7E3FD06460028F7D0E7
:10347000204600F015FE29460746012200F0B2FF63
:10348000384600F083FE626A8168074606F10C0048
:103490000EF010F9F9233370B570FB68F370314604
:1034A0002046FFF70EFEDBE7B8F1000F10D04146D3
:1034B000832001F03FF840B1074B2046596900F0E6
:1034C000DDFDEFF30983C3E902756FF00100A9E7A1
:1034D0006FF00200A6E700BF2404002008B5064BE9
:1034E00008219A6ED86EFFF7D9FE044BD864B0FA63
:1034F00080F04009404208BDEC5302002404002043
:103500002DE9F04106460F4690461C46EFF3058331
:103510004BB196B930466FF0030101F06FFA6FF0CE
:103520000300BDE8F081FFF7C1FD0028F1D1DFF80D
:103530004CC03046234600DFF3E73378FA2BE9D15D
:10354000002FE7D0002CE5D106F10C00FFF770FD4D
:10355000054680B1726A39460C300EF0ABF8F9239B
:103560002846C5E901762B70AC7085F8038000F021
:103570006FFC2046D5E76FF00200D2E7E131010091
:10358000F8B504460F4616461D46EFF3058343B1D2
:103590008CB920466FF0030101F030FA6FF00300A0
:1035A000F8BDFFF783FD0028F2D1DFF848C02046C0
:1035B0002B4600DFF4E72378FA2BEAD1002FE8D07E
:1035C000002DE6D12046FFF7F9FE054670B100F167
:1035D0000C01626A38460EF06DF80EB1EB7833706C
:1035E0002846EC6000F034FC0020D9E76FF00200C0
:1035F000D6E700BF01340100EFF310832BB9EFF3DE
:103600001180003818BF012070470120704700006A
:1036100070B5A8B38468D0E900566CB114F0030308
:1036200002D1C2681B2A1AD86FF00801002001F0ED
:10363000D5F90024204670BDC368002BF4D1124B8D
:10364000D3F8940030B9D3F8800001221C21FFF791
:1036500077FC01E0FFF7ECFC044660B10123F522A2
:10366000A3700023C4E90233C4E904332270E67076
:1036700065602376DEE76FF0040101F0AFF9D9E76A
:1036800005460646DBE700BF24040020284B70B542
:103690005D6904460E4635B96FF0070101F09EF9E9
:1036A0004FF0FF3070BD10B10378F52B07D02046E6
:1036B0006FF0030101F092F96FF00300F2E7037E6F
:1036C00053B9C0E90353EB6A436103B11861EC627B
:1036D000012323760020E5E7C278D1070DD5C16824
:1036E000A9420AD1FF2B06D16FF00F0101F076F944
:1036F0006FF00200D6E70133EBE7002EF8D0930716
:103700000AD5E06895F9203090F920209A4203DA32
:1037100080F8203000F0D6FC3146532000F00AFF3C
:1037200018B12946204600F0A9FC6FF00100B9E766
:10373000240400202E4B5A6970B5044632B96FF04C
:10374000070101F04BF94FF0FF3070BD10B1037865
:10375000F52B07D020466FF0030101F03FF96FF021
:103760000300F2E7037E33B96FF00E0101F036F982
:103770006FF00200E9E7C168914202D06FF00D01DD
:10378000F4E7013BDBB2037613BB43690BB101697C
:1037900019612169F1B14B6192F92130D56ADDB926
:1037A00082F82030A36883B1204600F079FC0646F9
:1037B0002A46294600F016FEF36A6361C4E90365F0
:1037C00003B11C610123F4622376002000F0F0FCB9
:1037D0000020BAE7D362DFE7E978890706D5A96850
:1037E00021B191F920108B42B8BF0B466D69D6E725
:1037F0002404002070B5044610B10378F52B07D0DF
:1038000020466FF0030101F0E9F86FF0030070BD8E
:10381000037EBBB16369C0680BB122691A6122697A
:1038200002B3536190F92120C36AEBB990F92030BB
:10383000934203D080F8202000F044FCA068F8B93F
:1038400000F0B6FCA078002610F001002670DED053
:10385000134BD3F894502146DDB12846FFF702FC04
:103860003046D4E7C362DDE7D978890706D5996881
:1038700021B191F920108A42B8BF0A465B69D4E7AA
:10388000204600F00DFC00226FF0020100F0AAFDBE
:10389000D4E7D3F88000FFF787FB2846B7E700BFDF
:1038A000240400202DE9F0410446002601270CB92C
:1038B000BDE8F081E378D4F814801B0712D5A36823
:1038C00026767BB1204600F0EBFB00220546114630
:1038D00000F088FDEB6A6361C4E9035603B11C6123
:1038E000EC6227764446E2E710B4C3789B071DD507
:1038F000C06890F92120C36ADC78A40709D59C68C8
:103900008C4208BF8C6824B194F92040A242B8BF11
:1039100022465B69002BEFD190F92030934205D00D
:1039200080F820205DF8044B00F0CCBB5DF8044B20
:103930007047000008B50246EFF3058333B100205D
:103940006FF0050101F04AF8002008BDFFF754FEB2
:103950000028F4D1DFF808C0104600DFF5E700BF0B
:103960001136010008B50246EFF305833BB110465E
:103970006FF0050101F032F86FF0050008BDFFF7A8
:103980003BFE0028F3D1DFF808C0104600DFF5E762
:103990008D36010008B50246EFF305833BB11046B2
:1039A0006FF0050101F01AF86FF0050008BDFFF790
:1039B00023FE0028F3D1DFF808C0104600DFF5E74A
:1039C0003537010008B50246EFF305833BB11046D9
:1039D0006FF0050101F002F86FF0050008BDFFF778
:1039E0000BFE0028F3D1DFF808C0104600DFF5E732
:1039F000F5370100EFF310832BB9EFF31180003896
:103A000018BF01207047012070470C30D0E85F3F9D
:103A100013B9BFF32F8F04E05A1EC0E8512F01B134
:103A2000F4E798B2003818BF0120704730B500F1B4
:103A30000C02C189D2E85F3F994202D8BFF32F8FB1
:103A400004E05C1CC2E8554F05B1F3E7C0899BB2A6
:103A5000984294BF0020012030BD0000F8B5154603
:103A60004FF6FE73421E9A4206460F4601D8884220
:103A700007D26FF00301002000F0B6FF00242046BB
:103A8000F8BD7DB1AC682A6844B114F0030302D1DB
:103A9000E9680F2922D86FF00801ECE7EB68002BEA
:103AA000F9D11546114BD3F8980080B1FFF7C0FA51
:103AB0000446A8B10123A3700023F622A3600B4B98
:103AC00022700B4A6560A781E6819A66D7E7D3F832
:103AD000800001221021FFF733FAE9E71546EAE7F3
:103AE0006FF0040100F080FFC9E700BF240400204C
:103AF000F53A0100836810B504465BB1FFF785FF16
:103B000040B1204600F0CCFA0022BDE8104011463A
:103B100000F068BC10BD38B5054610B10378F62B2F
:103B200007D028466FF0030100F05EFF6FF003003E
:103B300038BD84683CB100F0B3FA0122002100F0E6
:103B400051FC0020F4E7FFF771FF38B928466FF009
:103B5000100100F049FF6FF00200E9E72046E7E7B7
:103B600038B50D46044610B10378F62B07D0204631
:103B70006FF0030100F038FF6FF0030038BDFFF76E
:103B800044FF68B975B12946632000F0D3FC20B129
:103B9000064B2046596900F071FA6FF00100EDE71D
:103BA0000020EBE76FF00200E8E700BF24040020EC
:103BB00070B5054610B10378F62B07D028466FF094
:103BC000030100F011FF6FF0030070BD836863B163
:103BD000284600F065FA00226FF0020100F002FCB6
:103BE000A8680028F4D100F0E3FAAB78002613F0BF
:103BF00001032E700FD0094BD3F89840294624B109
:103C00002046FFF72FFA3046DFE7D3F88000FFF7B2
:103C1000CBF92046D9E71846D7E700BF2404002097
:103C200010B50446EFF3058333B100206FF00501B2
:103C300000F0DAFE002010BDFFF7DCFE0028F4D112
:103C4000DFF808C0204600DFF5E700BF5D3A01005D
:103C500008B50246EFF3058343B182B910466FF011
:103C6000030100F0C1FE6FF0030008BDFFF7C2FEC4
:103C70000028F2D1DFF824C0104600DFF5E7137802
:103C8000F62BEBD10029E9D11046FFF7BEFE002844
:103C900014BF00206FF00200E7E700BF613B0100A6
:103CA00010B50446EFF3058343B184B920466FF0A5
:103CB000030100F099FE6FF0030010BDFFF79AFEBC
:103CC0000028F2D1DFF830C0204600DFF5E7237886
:103CD000F62BEBD12046FFF7A9FE20B1204600F0DD
:103CE000B7F80020E9E720466FF0100100F07CFEF5
:103CF0006FF00200E1E700BF173B010008B5024684
:103D0000EFF305833BB110466FF0050100F06CFE48
:103D10006FF0050008BDFFF76DFE0028F3D1DFF856
:103D200008C0104600DFF5E7B13B010010B5D0E850
:103D30005F3F5A1C914200D80022C0E8542F04B1C2
:103D4000F5E798B210BD000038B51C4C00F0DEFE5F
:103D5000E3680133E36000F0E9F9002000F028FA9D
:103D6000236D03B19847226C32B3A369E16B99428A
:103D700003D0D969E36301B9DA61DA69C2B9237A98
:103D8000022B19D1656ABDB1E36B95F9202093F937
:103D900020309A4210D1284600F08BF9E06B00F0F9
:103DA000A3F9284600F0FCF9236CE563EB6103E01E
:103DB000013ADA61002AE2D038BD00BF24040020B5
:103DC00070B5224C04F1560504F15A06B4F85410AB
:103DD000D5E85F3F13B9BFF32F8F04E05A1EC5E843
:103DE000502F00B1F4E79BB25BB33046FFF79EFF64
:103DF000E36D53F8200020B30378F13B082BE5D89E
:103E000001A252F823F000BF2D3E0100CD3D01007C
:103E1000333E0100CD3D0100CD3D0100373E0100A4
:103E20003B3E0100CD3D01003F3E0100236E98471F
:103E3000CCE7636EFBE7A36EF9E7E36EF7E7236F6A
:103E4000F5E7BDE87040002000F0B2B9240400207E
:103E500070B5164C0546B4F8541004F15602D2E879
:103E60005F3F994202D8BFF32F8F04E0581CC2E88D
:103E7000560F06B1F3E79BB2994205D829460220B6
:103E8000BDE87040FEF7E1BF04F15800FFF74EFFB8
:103E9000E36D43F82050637A23B9054B4FF080520D
:103EA0005A6070BD0123A372FBE700BF2404002009
:103EB00000ED00E0EFF310832BB9EFF31180003831
:103EC00018BF01207047012070470378F12B00D004
:103ED0007047C068F9E7000010B5C469621CD0E9FA
:103EE00004310CD103B1596142691AB11361002345
:103EF000436101E0074A13630023C36110BD1BB196
:103F0000DA6959612244DA614269002AEED1014A34
:103F1000D362F1E72404002010B50A4A90F920107A
:103F200001234370536A1C321BB193F920408C4229
:103F300005DCC0E90232906003B1D86010BD1A46BA
:103F40009B68F1E724040020014B5869704700BFCB
:103F50002404002008B500F057FDDFF810C000DF92
:103F60004FF0FF31002000F02DFDFEE74D44010031
:103F7000930710B502F0010422D400F1280384B1A4
:103F800053E8000F00EA01028A4203D0BFF32F8FEB
:103F9000002005E020EA010243E8002404B1EFE735
:103FA00010BD53E8000F084203D1BFF32F8F00204C
:103FB00005E020EA010243E8002404B1F1E7EFE75D
:103FC000806A01EA00031CB1994218BF0020E7E7AC
:103FD000002B08BF0020E3E710B5084A136B00214F
:103FE0003BB94FF0FF34C0E90431C46121B108612D
:103FF00010BD19461B69F3E71063F9E7240400209C
:1040000010B50023038083789A07044608D513F07F
:10401000100F016B0E4B0FD0D3F88400FFF722F87E
:10402000A378DB0712D50A4BD3F88800214638B1B4
:10403000BDE81040FFF716B8586FFEF7B5FFEFE781
:10404000BDE81040D3F88000FEF7AEBF10BD00BF42
:1040500024040020C278D207034601D4FFF7D0BF62
:10406000042242700022C260034A516B816001B198
:10407000C8605363704700BF2404002010B591F955
:10408000202083681BB193F92040944205DAC1E9EE
:104090000230816003B1D96010BD18469B68F1E71A
:1040A00083689A68826002B1D0600022DA601846A4
:1040B0007047C2682AB18368936003B1DA60002355
:1040C000C360704710B50146044664B12378F12BF4
:1040D00007D00846FFF7EDFF2046BDE81040FFF788
:1040E000CDBFE468F1E710BD0123014643700148EC
:1040F000FFF7C4BF4004002070B50B4D2E7A022E8E
:1041000010D16C6A74B1696994F9202091F920305A
:104110009A4207D12046FFF7CCFF0846FFF7E4FF9D
:104120006670AC61002070BD2404002038B5164DC7
:10413000EC6A44B3E369013BE36123BB6378732B0F
:1041400006D009D8532B0BD003F0DF03432B0DD13E
:104150002046FFF7BAFE09E003F0EF03832BF6E7F2
:104160002046FFF7B2FE2146FFF7BEFB2046FFF7D1
:10417000A0FFFFF7B9FF246924B1E369002BDDD06C
:1041800000236361EC6238BD2404002090F82230E3
:10419000826B13F0100F0CBF60202020104470477A
:1041A00002234370014B9861704700BF2404002034
:1041B00070B5124D04462E7A696990B9022E0FD15E
:1041C0006C6A6CB194F9202091F920309A4207DD95
:1041D0002046FFF76EFF0846FFF79EFE6670AC6153
:1041E00070BD022E05D190F9202091F920309A421D
:1041F000F1DC2046BDE87040FFF776BF24040020C4
:104200002DE9F04F85B08146029128B96FF0030186
:1042100000F0D8FB0024BCE0002A45D0966846B1E7
:10422000B40702D1D368432B06D86FF008010020F1
:10423000EEE7D368002BF8D1D2E9044597693CB189
:10424000600702D1002D40F0B2806FF00A01EEE766
:104250002FB17B1E372B03D96FF00B01E7E718272F
:10426000002D40F0A880D2E900A301934EBB574B2C
:10427000D3F88800F0B1FEF7DBFE064600283AD0FE
:104280004FF00108002C44D1DFF840B1E5B9504AA5
:10429000DBF88400556DB8B1FEF7CAFE0246E0B106
:1042A00048F01008344623E0924614461827154675
:1042B0000192DCE7D3F8800001224421FEF740FEA2
:1042C000DBE74FF00008DDE72246DBF87400294603
:1042D000FEF736FE02460028E4D1B8F1000F16D0F2
:1042E000DBF8882052B110463146FEF7BBFE0022B3
:1042F00048F002087CB96FF0040198E7DBF8800011
:1043000003923146FEF750FE039A1446F0E7424608
:10431000EEE72246344640F2F1132380019BE3701E
:104320000023C4E90233C4E90433C4E90633C4E911
:104330000933C4E90B32A5F140031344C4E90E3933
:104340007FB2244B84F80280FD21C4F804A084F8D5
:10435000207084F821706184656313601C4B1B68B6
:104360005B071AD4A36B00201A4603F1340143F80B
:10437000040B9942FBD1184BC2E90D394FF0807301
:10438000D363029B1362114B144A1A662046FFF74F
:104390000FFF204605B0BDE8F08FAD08113D4FF08E
:1043A000CC33002DDED042F8043F013DF9E7002F69
:1043B0007FF44FAF182769077FF447AF084BA5F18B
:1043C000480199427FF64FAF3FE700BF2404002029
:1043D000EC530200A52E5AE2553F010009440100AA
:1043E000B7FFFF7F38B504461546FFF7CFFE0160E3
:1043F0002046FFF771FD1DB1BDE83840FFF7D8BE7C
:10440000BDE83840FFF770BE10B54378332B044643
:104410000CD1416A90F82320FFF7AAFD014628B18C
:1044200020460022BDE81040FFF7DCBF10BD10B5EC
:104430000446806918B100221146FFF7D3FF637864
:10444000232B02BFA36800229A6110BD70B50F4CE8
:10445000267A022E18D1636AB3B16569E86AFFF75C
:1044600021FA2846FFF7E3FF04F11C00FFF718FECE
:104470004670A061EFF30983AB63002363612846B4
:10448000BDE87040FFF7E6BD70BD00BF240400200A
:1044900010B5044610B10378F12B07D020466FF019
:1044A000030100F08FFA6FF0030010BD437803F0B2
:1044B0000F03022B1ED0032B2BD0012B2ED1FFF785
:1044C000F8FDE06AFFF7EEF92046FFF7B0FF6178EC
:1044D000022926D11548FFF7E3FD154B417098617D
:1044E000EFF30982A26300225A612046FFF7B2FD72
:1044F0000020DAE70E4B1A7A022A02D15B6A002BFF
:10450000DFD16FF00201204600F05CFA6FF002008C
:10451000CBE7FFF7CEFDFFF7DFFCD2E76FF002013C
:10452000F2E70020FFF744FEDFE700BF4004002071
:104530002404002038B5174C237A022B024627D1D9
:10454000606A60B160694B1C427009D1FFF744FD9D
:104550001148FFF7A5FD02234370A061012038BD7B
:10456000E36A002213B1DD69A9420BD2C0E904322B
:10457000C1615AB11061002BEAD0DA695861511A51
:10458000D961E5E71A46491B1B69EBE7E062F2E7F0
:104590000020E4E7240400204004002038B50D4C3E
:1045A0000D48A26D0D4D0021FFF72AFE636EA86233
:1045B0005BB1984758B9E26DE96C206EFFF720FEB9
:1045C000A864003818BF012038BD0120FCE7002096
:1045D000FAE700BFEC530200354901002404002033
:1045E00010B50446EFF3058333B100206FF00501E9
:1045F00000F0E8F9002010BDFFF75CFC0028F4D1C2
:10460000DFF808C0204600DFF5E700BF01420100E7
:1046100008B5EFF3058313B1054B586908BDFFF7E3
:1046200049FC0028F8D1DFF80CC000DFF6E700BF36
:1046300024040020493F010008B5EFF305833BB196
:1046400000206FF0050100F0BDF96FF0050008BD16
:10465000FFF730FC0028F3D1DFF804C000DFF6E7F5
:10466000F940010010B5044600F0DAF9EFF30583D4
:104670003BB120466FF0050100F0A4F96FF0050092
:1046800010BDFFF717FC0028F3D1DFF808C0204663
:1046900000DFF5E7914401000C4A536C30B500246B
:1046A00013B11D698D420AD9C0E9024301611BB1F2
:1046B0001D699860691A19612CB1E06030BD1C4613
:1046C000491BDB68ECE75064F8E700BF24040020D6
:1046D0002DE9F041184D6C6C54B323696E69013BB0
:1046E00023610127236913BBE3680BB1A2689A60B9
:1046F0006B640023E86C1A4604F11801FEF700FF12
:1047000058B1D5E90583214603206B61FEF79DFB77
:104710006B6913B9B04508BF0026E378012B09D1B6
:1047200061692046FFF7B8FF6C6C002CDAD16E612E
:10473000BDE8F0816770F7E72404002008B5FEF7B4
:10474000CDFE18B9034B044A1A6508BD4FF0FF307F
:10475000FBE700BF24040020D146010007B5044652
:104760004FF0FF33002269462046FEF709FF00287C
:10477000F6D1DDE900309847F2E7000008B5094BB3
:10478000094A1A60094B9B1A094A1360094B0A4AE5
:104790001A600A4B9B1A0A4A136000F051F800F0A5
:1047A00069F800BF4C27002000FC03200000042013
:1047B00048270020D42A002060B7002000FC0320F6
:1047C000D02A00200E4838B50E4B03600B250E4B47
:1047D00045601C24C4608360FFF7ACF80B4B186085
:1047E0000B480C4BC460C0E900350B4B8360FFF7EE
:1047F000A1F80A4B1860BDE838400CF065BB00BF5B
:1048000018270020C05402002C2700202827002051
:10481000E8260020CD540200FC260020F8260020C7
:10482000FDF73EBE024B4FF0FF311868FFF79AB814
:1048300028270020014B1868FFF7ACB82827002074
:1048400008B506F007FABDE8084000F011B8704757
:10485000704708B500F042F8FFF7F9FFFFF7B2FF25
:10486000FFF7F6FF03F05CFFBDE80840FFF7D8BF95
:10487000FEF7F6BA114C124B23614FF4004363610B
:104880004423E3600F4BA360182307B5A3610E48D0
:104890000E4B236022460021FFF7A2FE034628B9F3
:1048A0000B49009022460B4803F042FFFEF7F0FA56
:1048B0000023094900931A46F5E700BF6C32002037
:1048C000983200205027002053480100E75402008E
:1048D000EC5402001D010180085502001FB5064B73
:1048E0000FCB6C4684E80F002046FFF723F8034BFC
:1048F000186004B010BD00BF2055020090320020A7
:1049000073B506460C46154603F00CFF58B906343D
:104910002ABF064B064953F8241000230093324661
:10492000284603F005FF02B070BD00BFE456020048
:104930003856020008B500F0F3F8000007B5002370
:10494000421E00930023042A19D8DFE802F003086E
:104950000C1014000C490D48012203F0E9FE0C492B
:104960000C480222F9E70C490C480322F5E70C49F0
:104970000C480422F1E70C490C480522EDE70246F9
:104980000B490C48E9E700BF3055020025010280C1
:10499000515502002601028076550200270102804F
:1049A000AB55020028010280E65502002A01028070
:1049B0002656020000010280014A0146FFF7A0BF0F
:1049C00031010180014AFFF79BBF00BF3201018026
:1049D000014AFFF795BF00BF37010180014AFFF789
:1049E0008FBF00BF3301018011F1110F02D0024AC5
:1049F000FFF786BF704700BF34010180014AFFF70F
:104A00007FBF00BF3801018010B5FFF701FE034BE7
:104A10001B6813B1BDE81040184710BD9427002053
:104A2000024B1B6803B11847704700BF9427002052
:104A3000024B987A003818BF0120704724040020E8
:104A400008B5FEF73BFA0749002203F003FFC31C39
:104A500004D9054905488B2203F048FCBDE808400D
:104A6000FEF740BA314A01001F57020031570200D9
:104A7000B0F57A7F38B50D4604D01849184832226F
:104A800003F034FC03F042F9041E13DB04F160432D
:104A900003F56143E02283F800232946204605F010
:104AA000FBF8204605F000F985420AD00B490D4875
:104AB0003F22E5E70C4B04F00F021344E0221A7684
:104AC000EBE7002C08DB094B6209012004F01F040E
:104AD00000FA04F443F82240002038BD1F570200BA
:104AE0005E5702006B570200FCEC00E000E100E0C2
:104AF00008B503F037FEBDE8084003F006BA000031
:104B0000014B186803F036BA002A0020014B1868E0
:104B100003F0F2B9002A002008B503F0F7F808BD49
:104B200008B5024C23689847FCE700BFC804002082
:104B300003680BB1084618477047CB68C3600BB1D8
:104B40005B68184770470000044B0022C3E901224C
:104B50001A611A60024ADA60704700BF9827002085
:104B6000314B01000346002210B503F8012B00F180
:104B7000110403F8012B9C42FBD1418210BD0000BF
:104B800008B542F602110248FFF7ECFF08BD00BF6E
:104B9000AC270020C36810B52BB9054905484FF470
:104BA000FD7203F0A3FBBDE810401B68184700BF6F
:104BB000BC570200C7570200034B1A78034B53F847
:104BC000223003B118477047CC040020C0270020D2
:104BD000074B1B785BB1074B0122C3F80823064B38
:104BE0005A78FF2A00D1FEE7044A12885A707047AB
:104BF0009DB2002000F00040F8B30020C8B20020B1
:104C0000F8B50546064655F8044B8CB90D4F386883
:104C100018B14FF0FF31FEF7A5FE346824B92846DD
:104C200004F018FB2C463560386808B1FEF7B2FE78
:104C3000AC4204D0044905488B2203F057FB2046C0
:104C4000F8BD00BF90320020F7570200065802005E
:104C5000036801221B6900211847036800221B69B1
:104C60001146184707B5019003F0F0FB01980121A8
:104C700005F0A0FB03B05DF804EB03F0FDBB07B546
:104C8000019003F0E3FB0198002105F093FB03B0D2
:104C90005DF804EB03F0F0BB07B5CDE9001003F0BD
:104CA000D5FBDDE9001005F063FB03B05DF804EB14
:104CB00003F0E2BB416830B4034671B1D0E9032090
:104CC00000F0010402B944B1451001EB60000CB1E1
:104CD00049598A58996830BC104730BC7047000069
:104CE00008B5431C04D10F490F48212203F0FEFAF6
:104CF000012359B11F2886BF0C4A00F01F004FF056
:104D0000A04203FA00F0C2F8080508BD1F2886BFBC
:104D1000064A00F01F004FF0A04203FA00F0C2F86C
:104D20000C05F2E7565802007D53020000030050C4
:104D3000064B10B504460360806A08B102F02CFEF1
:104D4000201DFBF777FE204610BD00BF6C58020007
:104D500010B50446FFF7ECFF2046A82104F0CCF87C
:104D6000204610BD036870B504460D461B68984781
:104D700004F13000A567294605F026FC236820468B
:104D80005B68BDE8704018477FB506461D4656F87B
:104D9000303BCDE902211B68044698479DF820303E
:104DA00083F00103DDE90221009330462B4605F034
:104DB0003FFC236806465B6820469847A81B18BF3F
:104DC000012004B070BD7FB506461D4656F8303B45
:104DD000CDE902211B68044698479DF8203083F0F6
:104DE0000103DDE90221009330462B4605F004FC67
:104DF000236806465B6820469847A81B18BF012019
:104E000004B070BD7FB50024012615462346224616
:104E100002A800968DF8084002F02EFB03A8009629
:104E20002346224629468DF80C4002F025FB03A8B4
:104E300005F070FA002853D002A805F06BFAB042D2
:104E400002D1002004B070BD214603A8FFF724FF63
:104E500003A8FFF707FF0A24002103A8FFF71CFFA0
:104E600000219DF90C00FFF73BFF052004F07AF9C3
:104E7000032103A8FFF710FF9DF90C000121FFF7A4
:104E80002FFF052004F06EF9013CE5D102A8FFF7E1
:104E9000E9FE21469DF90800FFF722FF052004F0F6
:104EA00061F901219DF90C00FFF71AFF052004F0BC
:104EB00059F901219DF90800FFF712FF052004F0C0
:104EC00051F902A8FFF7DBFE03A8FFF7D8FE03A8FD
:104ED00005F020FA20B102A805F01CFA0028B0D194
:104EE0006FF00100AEE70346002243F8042B00F107
:104EF000280103F8012B9942FBD1704708B57C309B
:104F0000FFF77EFEBDE8084004F0ACB908B57C3080
:104F1000FFF776FEBDE8084004F0C2B9F8B5194BBA
:104F200003600D46184B4361002100F13007044631
:104F3000C0E90711C0E90911016181851646806148
:104F4000482238460CF0B4FC104BA36704F17C00F7
:104F5000FFF7C9FF2046FFF7D1FF3246294684F804
:104F6000A45084F8A5602046FFF74CFF94F9A520D3
:104F700094F9A410384605F0E1FA2046FFF7C6FF81
:104F80002046F8BD6C580200B54C0100A086010017
:104F900070B504460D461646002148220CF088FCE8
:104FA00032462946204605F0C9FA2046044905F054
:104FB0000BFB2046012105F05DFB204670BD00BFC4
:104FC000A086010005F000BBCAB2002342F0010236
:104FD000194605F0B3BB05F05FBB05F06FBB10B51C
:104FE000144605F08BFB001B18BF012010BD07B550
:104FF000CDE9001003F02AFADDE9001005F0A2FD6A
:1050000003B05DF804EB03F037BA07B5CDE9001043
:1050100003F01CFADDE9001005F0ECFD03B05DF8CB
:1050200004EB03F029BA90F8213010B5044623B9F7
:1050300003F040FC012384F8213010BD90F82130AA
:1050400010B5044623B103F04BFC002384F8213053
:1050500010BD10B5044603F0F9F994F8223053B9A5
:1050600094F92010204605F025FD2046FFF7DBFFD0
:10507000012384F82230BDE8104003F0FDB910B5DB
:1050800000230022044680F8201080F8213080F8A8
:10509000223042628362FFF7DCFF204610BD10B56C
:1050A000044603F0D3F994F8223043B1204605F0CA
:1050B0002FFD2046FFF7C2FF002384F82230BDE811
:1050C000104003F0D9B910B50446FFF7E8FF2046B9
:1050D00010BD416830B4034671B1D0E9032000F03F
:1050E000010402B944B1451001EB60000CB149590B
:1050F0008A58996830BC104730BC704713B590F996
:1051000035304468009390F9343090F9332090F9A9
:105110003210201D06F0FEFB02B010BD10B5044693
:1051200003F094F9074B1B68002B09DD064B187838
:10513000A0420CBF1C46002403F09EF9204610BD7F
:105140000024F9E74C280020D4270020084A08B59D
:105150001368002B04DD07490748AF2203F0C6F8A7
:10516000591C1160054A782000FB032008BD00BFD0
:105170004C280020955802009D580200D42700209A
:105180000023082210B5C0E90E2303860B4B0364ED
:105190000446FF23A0F8443003F058F994F84C007B
:1051A000FFF7BCFF606028B9FFF7D0FF94F84C30E0
:1051B00060600370BDE8104003F05EB940420F002C
:1051C00038B50446124820601248A06020460025E9
:1051D00084F834309DF9103084F8321084F833208C
:1051E00084F83530C4E90455E460A561E561E56201
:1051F0004FF0FF3100F8365F02F03BF9064BA56433
:105200002046236584F84C50FFF7BAFF204638BD8E
:10521000D0580200D3500100FD50010043685B6F7D
:10522000834210B504460FD0036D98476068D4E9F7
:105230000E120023043006F0CBFB6068216C0430B2
:1052400006F0EEFB63685C6710BD036870B504464A
:105250001B690D46164698476068436FA342C4E930
:105260000E560BD1002332462946043006F0B0FB1F
:10527000236820465B69BDE8704018472046FFF769
:10528000CDFFF5E7036870B504461B690D469847E6
:1052900060682564436FA34209D12946043006F0B3
:1052A000BFFB236820465B69BDE870401847204675
:1052B000FFF7B4FFF5E7000090F936305A1C18D01C
:1052C000012259B11F2B86BF0A4903F01F034FF07B
:1052D000A04102FA03F3C1F8083570471F2B86BFBF
:1052E000044903F01F034FF0A04102FA03F3C1F891
:1052F0000C3570470003005038B5036804461B693D
:10530000984794F945506B1C84F8453045B92046C0
:10531000FFF784FF29462046BDE83840FFF7CCBFA1
:1053200038BD10B590F84530013B5BB2044680F8BB
:10533000453013B90121FFF7BFFF236820465B69A1
:10534000BDE81040184737B504460191FFF7D4FF78
:1053500060680199043006F09BFB05462046FFF784
:10536000E0FF284603B030BD30B5044687B0CDE934
:1053700004210393FFF7C0FF94F84450606801953F
:105380000A9D05990095DDE90332043006F0AAFB79
:1053900005462046FFF7C5FF284607B030BD08B5D3
:1053A00040684C30FFF72CFCBDE8084003F05ABFC2
:1053B00008B540684C30FFF723FCBDE8084003F017
:1053C0006FBF000010B50C4B03600446FFF7E7FF0A
:1053D00063685A6FA24204BF00225A672046FFF753
:1053E000E7FF04F12000FBF725FBE06908B102F0BC
:1053F000D3FA204610BD00BFD058020010B50446B5
:10540000FFF7E0FF2046542103F076FD204610BD53
:105410007047416830B4034671B1D0E9032000F011
:10542000010402B944B1451001EB60000CB14959C7
:105430008A58996830BC104730BC704770B500F18D
:105440004C0690F9DF2090F9DE100446304605F056
:1054500099FED4E939530DB9DA070ED55A1004EB89
:105460006300DB0748BFA35894F8EC1048BF5D59B0
:1054700094F9ED2094F9EE30A847D4F8D8103046CE
:1054800005F090FF224630460249BDE8704006F024
:1054900067B800BF2B5801002DE9F0411F46D0F836
:1054A000E03004460E4615462BB12849284840F204
:1054B000351202F01BFF274AC0E9392303681B6835
:1054C000984784F8EC6084F8ED5084F8EE70042E70
:1054D0000CD8DFE806F0160311161A004FF0FF3360
:1054E0002A46012104F14C0006F014F823682046F6
:1054F0005B68BDE8F04118472B464FF0FF320221B0
:10550000F0E73B462A463146ECE70120013584F8B6
:1055100004010AD003F0DAFC0023054694F9ED10EB
:10552000037001F091FFC4F8F05094F9EE300133AC
:10553000DCD0012003F0CAFC0022054694F9EE10ED
:10554000027001F084FFC4F8F450CFE70159020063
:1055500010590200995401002DE9F04198461E4B64
:1055600003601E4B436000251D4B85600446C0E967
:105570000555C0E907550F461646C3608584456347
:105580004564A0F848506C22294600614C300CF06C
:105590008FF940F20113A4F8DC304FF47F43A4F8F4
:1055A000EC30FF232046C4E93558C4E93855C4E936
:1055B0003E55C4F8C45084F8DE7084F8DF60C4F847
:1055C000E85084F8EE30C4F8005184F80451FFF735
:1055D00035FF2046BDE8F081305902003D540100FE
:1055E0001354010070B50646044656F84C3B0D4670
:1055F0001B6898473046294605F0D4FE2368C4F856
:10560000D85020465B68BDE8704018477FB5054616
:10561000044655F84C6B0193CDE902213668B0473A
:10562000DDE901322846039905F03CFF23685B68F9
:10563000204604B0BDE870401847000038B5054664
:10564000044655F84C3B1B689847284606F038F846
:1056500094F804310546C3B1D4F8F430ABB193F9F2
:1056600000305A1C04D112491248212202F03EFE99
:10567000012280B91F2B86BF0F4903F01F034FF093
:10568000A04102FA03F3C1F80835236820465B689D
:105690009847284638BD1F2B86BF074903F01F03D4
:1056A0004FF0A04102FA03F3C1F80C35EDE700BF5B
:1056B000565802007D5302000003005038B50546DD
:1056C000044655F84C3B1B689847284606F018F8E6
:1056D00094F80431054643B1D4F8F00004F01AFE02
:1056E000002814BF002505F00105236820465B68EB
:1056F0009847284638BD03682DE9F34105461B68E5
:1057000016460F46984795F8DC30340103B1B6B120
:1057100095F8DD300BB1012E11D0B8342819B842FC
:1057200006D00190FBF786F901983946FFF705FA94
:105730002B685B68284602B0BDE8F0411847B834D2
:1057400002F084FE2C44FA68E36805F14C089AB133
:105750000BB903F0AFF8A74206D02046FBF76AF971
:1057600039462046FFF7E9F901223146404605F067
:1057700007FF02F081FEDBE70BB103F0B1F8204632
:10578000FBF758F90022E260EFE7000030B51B4B51
:10579000036085B000252A46694604460395FFF755
:1057A000AAFF6846FBF746F90122694620460395A1
:1057B000FFF7A1FF6846FBF73DF994F8DC3013B919
:1057C00094F8DD301BB104F14C0005F0BBFD04F191
:1057D000C800FBF72FF904F1B800FBF72BF904F12F
:1057E0003800FBF727F904F12800FBF723F9206ABA
:1057F00008B102F0D1F8204605B030BD30590200A2
:1058000010B50446FFF7C2FF20464FF4847103F041
:1058100073FB204610BD4C3005F0DEBE10B54C3099
:105820000C4605F017FF204610BD00EB0110B83004
:1058300008B5C3680BB1FFF7ADF908BD036870B5D3
:1058400004461B680D46984794F8DC30AB422BD0D9
:1058500065B194F8DD304BB9A2686368511004EB70
:105860006200D20744BF6258D358984702F0EEFD59
:1058700005B3D4F8C4305BB104F1B800FFF78AF97E
:1058800003F018F80122002104F14C0005F078FE25
:1058900002F0F2FD84F8DC5035B994F8DD301BB924
:1058A00004F14C0005F04EFD236820465B68BDE81E
:1058B000704018472A46294604F14C0005F060FE66
:1058C000D4F8C430002BE3D003F00AF8E0E7036813
:1058D00070B504461B680D46984794F8DD30AB421E
:1058E0002BD065B194F8DC304BB9A26863685110D5
:1058F00004EB6200D20744BF6258D358984702F0C5
:10590000A5FD05B3D4F8D4305BB104F1C800FFF7AE
:1059100041F902F0CFFF0122114604F14C0005F0DD
:105920002FFE02F0A9FD84F8DD5035B994F8DC3083
:105930001BB904F14C0005F005FD236820465B68A7
:10594000BDE8704018472A46012104F14C0005F0DB
:1059500017FED4F8D430002BE3D002F0C1FFE0E70B
:10596000437D10B504461BB1037D0BB102F0B8FFB7
:10597000204610BD13B5044601A802F015F8637D5A
:1059800053B9237D0BB102F095FF206901F0C9FFE7
:10599000C4E900010123637501A802F00DF802B00B
:1059A00010BD37B504460D4601A801F0FDFF0023E8
:1059B0000022C4E900236B7D4BB1286901F0B1FFDF
:1059C000D5E90032C01A61EB0201C4E9000101A867
:1059D00001F0F2FF204603B030BD30B585B004467B
:1059E0000D4603A801F0E0FF29466846FFF7D9FFFE
:1059F000D5E90210009B019A5B1840EB0202C4E952
:105A0000003203A801F0D8FF204605B030BD13B521
:105A1000044601A801F0C8FF206901F082FF0022BE
:105A20000023C4E90001C4E9022301A801F0C4FF76
:105A300002B010BDD0B5002300260027C0E90067E2
:105A4000C0E902670446016102754375FFF7DFFF95
:105A50002046D0BD10B5044601F08AFF0122014660
:105A60002046FFF7E7FF204610BD10B5044601F0C1
:105A700043FD002201462046FFF7DCFF204610BD13
:105A800003681B681847000010B50446074B2360E5
:105A900000220023C4E9022300230846A161C4E9CF
:105AA0000433034901F0CCFE204610BD48590200E2
:105AB000815A010007B5009000F10801806901F0EA
:105AC000FDFE03B05DF804FB00F10801806901F000
:105AD0000DBF002070476FF01C0070476FF01C0076
