:020000021000EC
:100000000000042055AD01008DAD0100919001006C
:1000100091AD01009D900100A3900100000000003F
:10002000000000000000000000000000AD380100EA
:1000300099AD010000000000473901005739010067
:1000400071EE0100A55D01009FAD01009FAD0100B3
:100050009FAD01009FAD01009FAD01009FAD01006C
:100060009FAD01009FAD01009FAD01009FAD01005C
:100070009FAD010005F001009FAD0100BD5D0100D5
:100080009FAD01009FAD01009FAD01009FAD01003C
:100090009FAD01009FAD01009FAD01009FAD01002C
:1000A0009FAD01009FAD01009FAD01009FAD01001C
:1000B0009FAD01009FAD01000000000000000000A6
:1000C0009FAD01009FAD01009FAD01009FAD0100FC
:1000D0009FAD01009FAD01009FAD01009FAD0100EC
:1000E0009FAD01009FAD01009FAD01000000000029
:1000F000000000009FAD0100000000009FAD010066
:1001000010B5054C237833B9044B13B10448AFF351
:1001100000800123237010BD0010002000000000AB
:100120002C86020008B5034B1BB103490348AFF30B
:10013000008008BD00000000041000202C86020092
:10014000154B002B08BF134B9D46A3F5803A0021A9
:100150008B460F461348144A121A12F089F90F4BB6
:10016000002B00D098470E4B002B00D09847002062
:10017000002104000D000D48002802D00C4809F0B1
:1001800023FD11F085FC2000290005F03FFC09F05B
:1001900018FD00BF0000080000000420000000005F
:1001A0006959010000100020F0B60020C99B010031
:1001B0000000000070B52B4C8AB006460D4601A821
:1001C000294903F0A0F9204601F006F92046012153
:1001D00000F0D6FE4FF480224FF00113234901A80E
:1001E000C4E9042303F0C7F901A907A803F0B9F98A
:1001F000314607A803F007FA014601A803F0A2F967
:1002000007A803F035F901A9204603F0FBF84FF4E5
:1002100080131749236101A803F0ADF901A907A8CC
:1002200003F09FF90222294604A803F0AEF904A9BD
:1002300007A803F0E8F9014601A803F083F904A830
:1002400003F016F907A803F013F901A9204603F0FB
:10025000D9F8204601F038FB01A803F009F90AB0EB
:1002600070BD00BF1C1000207C780200905A020074
:10027000985A020030B516491648174C174D85B0EC
:1002800003F079F9164B13491648236003F0DCF9A3
:1002900040B195ED007AD4ED007AB4EE677AF1EED4
:1002A00010FA0AD00B4901A803F05BF901A82168F4
:1002B000FFF780FF01A803F0DBF823680549094830
:1002C0002B6003F03FF9C82003F028FA05B030BDD9
:1002D000A55A02007C1000206C100020681000203D
:1002E000CDCC0C3F70100020F0B5164B164A174DC0
:1002F000174C184F184E85B0CDE9013204230093F6
:100300002022164B8021284600F058FF2846144D25
:100310001449224609F053FC3946284603F0F3F805
:100320002846114D2246314609F049FC39462846F7
:1003300003F0E9F822463146284605B0BDE8F04012
:1003400009F03DBC801A0600A08601001C100020A8
:10035000000200207C780200713401008810002027
:100360007C1000201D1201007010002007B54FF412
:100370001651184801F05EFC012300933C22022133
:10038000154801F037F820B91449124803F030F845
:10039000FEE7114801F098FA4FF4FA6003F0BEF955
:1003A0000D4801F019F80C4801F08EFA4FF4FA608C
:1003B00003F0B4F90A4A0B4B13600B4A0B490C4883
:1003C000136003F0D8F809490A4803B05DF804EB5C
:1003D00003F0D1B84C1600201C100020AB5A0200CC
:1003E0006C1000200000C6C268100020C55A020030
:1003F0007C100020701000200020704770470368B8
:10040000C9B21B68184749000023C161C0F82C32EB
:100410007047036801211B6B184710B403689C6B7D
:100420000123A4465DF8044B6047D0F82C32B3F5A5
:10043000807F1FBF5A1CC0F82C22C01880F82C11D6
:1004400014BF012000207047D0F828017047704782
:10045000C0F830127047C0F834127047D0F8283115
:10046000A3B1D0F828318BB1D0F82431D0F82421B1
:1004700003440132D2B293F82030C0F82421D0F8DE
:100480002821013AC0F82821184670474FF0FF3064
:100490007047D0F828312BB1D0F82431184490F8A7
:1004A000200070474FF0FF30704738B503685B6A33
:1004B00004469847A82009F08DFD94F9192094F975
:1004C0001810054605F020FE656138BD70B503685B
:1004D00086B05B6A05460E469847482009F07AFDCB
:1004E00095F9192095F91810044605F047FE71009A
:1004F00020462C6105F05EFEBC2009F06BFD002655
:10050000134B0360044631460661403009F088FF12
:1005100004F1540009F022FF0E4B00934FF40062E7
:100520003346182120460AF015F80B4B05930B4B68
:10053000C5F8384202A92046CDE9033602950AF0F3
:1005400015F8059B13B19B6802A8984706B070BDCB
:100550001C7F0200D85A0200CC5A0200AD060100EE
:100560000B6803604B6843608B688360704738B5E5
:10057000D0F82C3214461A44B2F5807F88BFC3F5F8
:100580008074054600F596702246184411F072FEFC
:10059000D5F82C322344C5F82C32204638BD38B566
:1005A000044640690D4608B105F0D2FC206920B12F
:1005B0002946BDE8384005F0FBBD38BD10B50446FE
:1005C000406920B10368DB689847002363612369B1
:1005D0009BB1D4F838020AF039F8D4F838020AF09E
:1005E0007FF8D4F8380210B103685B689847482157
:1005F000206909F005FD0023236110BD1FB50246E7
:10060000D0F82C32D469406981F0010100913BB9E6
:10061000012303AA214605F0CCFCC0B204B010BDF2
:1006200002F59672214605F0A5FC002814BF0220B1
:100630000020F3E770B5C2B083F00103009302AE6F
:1006400004461546134649003246406905F0B1FCA0
:10065000C8B9A84218D0D4F82831B3F5807F10D09B
:10066000D4F82031325C234483F82020D4F82031A0
:100670000133DBB2C4F82031D4F828310133C4F897
:1006800028310130E5E70025284642B070BD10B49E
:10069000D0E9013401686210E40701EB020048BFB1
:1006A0008A585DF8044B48BFD358184730B5044604
:1006B000BDB00025206905F084FD0328FAD8DFE8E5
:1006C00000F04A021212D4F8343203B19847D4F839
:1006D0002C22002AEED004F59671206905F075FDF4
:1006E000C4F82C52E6E7C4F82051F022C4F8245193
:1006F0006946C4F82851206905F065FD0022824250
:100700001DDAD4F82831B3F5807F18D0D4F8283119
:10071000B3F5807F11D0D4F820311DF802102344A6
:1007200083F82010D4F820310133DBB2C4F8203133
:10073000D4F828310133C4F828310132DFE7D4F886
:100740002831002BB6DDD4F83032002BB2D0D4F8EB
:1007500028019847AEE702F0F1FFABE738B5002576
:100760004FF47A730446C0E901530D4B0360C0E9AE
:1007700004550176427629464FF48072203011F0FC
:1007800077FEC4F82051C4F82C52C4F82451C4F8A0
:100790003052C4F82851C4F83452204638BD00BF46
:1007A000EC5A020010B5122002F08CFF0446132010
:1007B00002F088FF214602460848FFF7CFFF1E20BF
:1007C00002F080FF04461F2002F07CFF2146024613
:1007D000BDE810400248FFF7C1BF00BF88100020ED
:1007E000C412002070472DE9F04F85B01D46BDF9B9
:1007F0003840BDF83CA0A31A83EAE37BABEBE37B74
:100800006B1A002BB8BF5B429B458146164601938D
:1008100004DC23460E462C4611461D46A64205DC46
:100820002B460D461946234634461E464B1B002BCD
:10083000A6EB0408B8BF5B421FFA88F802930FFAD0
:1008400088F7022397FBF3F300938D42ACBF4FF080
:10085000FF3301230393B44220DCD9F800309B69B5
:100860001F46019B9B45CCBF22462A465346CCBF20
:10087000294621464846B847009A029BD71ABBB280
:100880001AB2002A009206DA039A08EB030715440D
:100890003BB22DB20093013424B2DCE705B0BDE8D1
:1008A000F08F704710B404682469A4465DF8044BC7
:1008B000604730B40468BDF808500295A46BA446A4
:1008C00030BC604730B40468BDF808500295E46B52
:1008D000A44630BC604770B4BDF90C50BDF8106040
:1008E0000468CDE90356246CA44670BC60472DE92A
:1008F000F3411C460368BDF820805B690546164637
:10090000013C34440F4624B298472B68CDF804804C
:1009100000949C6A28463B4632463946A0472B68DD
:10092000DB6A284602B0BDE8F04118472DE9F341E3
:100930001D460368BDF820805B69044617460E46D5
:100940009847CDE9007822686B1E3344956A2046AB
:100950001BB23A463146A8472368DB6A204602B0FC
:10096000BDE8F04118472DE9F3471E460368BDF97D
:1009700028805B69BDF82C900C46054617469847C1
:100980002644B4422A680BDACDF80090D2F820A0B1
:10099000214643463A4628460134D04724B2F0E780
:1009A000D36A284602B0BDE8F047184713B5B0F93E
:1009B0000E200468019100920022B0F90C30246CE2
:1009C0001146A04702B010BD2DE9F3471D4603684C
:1009D000BDF82C705B69BDF9289004468846164620
:1009E000984723680097D3F824A032462B46414607
:1009F0002046D0472368009709F1FF323244D3F8EC
:100A000024A041462B46204612B2D04723680097C7
:100A1000D3F820A032464B4641462046D0472368B3
:100A20000097691E41441D6A20464B46324609B272
:100A3000A8472368DB6A204602B0BDE8F0471847A4
:100A400070472DE9F347994280460C461546994672
:100A5000BDF92860BDF82CA0076811D1B242DCBFF7
:100A600033461D46CDF828A0D8BF16466B1CBD6B7B
:100A70009B1B1BB23246AC4602B0BDE8F047604754
:100A8000B2420ED19942D8BF1C46CDF828A0D8BF9B
:100A90008946631CFC6BA3EB09031BB24946A446C1
:100AA000EAE77B699847CDE9006AD8F8003040460C
:100AB0009E6A2A464B462146B047D8F80030DB6A8A
:100AC000404602B0BDE8F047184701F00301012994
:100AD0008176B0F90830B0F90A2004D0032902D099
:100AE0008381C28170478281C381704730B5428162
:100AF000C2814FF0FF32426140F201120024064DE4
:100B00000283012244600560018181810461847651
:100B1000C2760477046230BD446002002DE9F04FD4
:100B200089B09A46BDF94C300593BDF85030069314
:100B30000368BDF948905B69CDE9031200260546BC
:100B400034469847019609F10702082392FBF3FB0C
:100B5000019A049B13441BB20293059ABDF9043019
:100B60009A4226DD0AEB06034FF0000807930FFABE
:100B700088F34B4518DA1FFA88F14A0705BFDB10E6
:100B8000079A6400D45C18BFE4B2230609D5039B1E
:100B9000029A19442B689B6909B21F462846069B96
:100BA000B84708F10108E2E7019B013301935E4475
:100BB000CEE72B68DB6A284609B0BDE8F04F18473E
:100BC0002DE9F04F91B09146026A05911F46BDF89C
:100BD000683002930446BDF86CA09DF870609DF8E3
:100BE0007450002A40F0B880B0F90C308B4240F3CA
:100BF0003781B0F90E304B4540F33281062313FBA9
:100C00000613002B40F32C8109EBC503002B40F3A6
:100C10002781037F1BB9AF2F84BF0137FFB2236841
:100C200020465B69984705230A931FFA89F34FF022
:100C30000008069305238C4A13FB0783D35C0793B4
:100C4000B3B20893BDF814300393039A089B08FBD2
:100C500003231BB2099308230B930023049312FA76
:100C600088F31BB20C93079A2368D2074DD5012E47
:100C7000BDF810203AD1012D38D10699D3F818B01B
:100C8000029B0A4412B20C992046D847049B0133B8
:100C90005BB20493079B5B0807930B9B013B13F02C
:100CA000FF030B93DFD10A9B013B08F1010813F00E
:100CB000FF034FFA88F80A93BCD1029B53450ED02C
:100CC000012E236837D1012D35D10399CDF800A02D
:100CD00005311D6A4A46082309B22046A847236801
:100CE000DB6A204611B0BDE8F04F1847069915FBA6
:100CF00002F20A44029901910095D3F81CB00999B7
:100D0000334612B22046D847C0E7029A5245BDD0BA
:100D1000012EBDF8102007D1012D05D10699D3F879
:100D200018B00A445346ADE70699CDF804A015FB68
:100D300002F20A44E0E7089ACDF804A002EB82012F
:100D4000039AED000A4411460095DD694A46334690
:100D500009B22046A847C2E7137A516812680D927B
:100D6000FF1AFFB201EBC70331F8372003929A78DC
:100D70000792DA780B92012E93F90520089293F9E5
:100D800006B001D8012D51D9BDF9203006930FFAD4
:100D90008BF30493236820465B6998471FFA89F315
:100DA0004FF0000809935B44C24647460F930B9BE4
:100DB0009F4294D2049B099A3B4403FB05230F9A5C
:100DC0003A441BB212B20A934FF0000943460E9206
:100DD000079A91453DD25A1CD2B25B070C9207D1BB
:100DE000039B03990D9A01339BB212F801A0039360
:100DF0001AF0800F10D0012E2268BDF8141019D1FE
:100E0000012D17D1089BD2F818B00E9A1944494405
:100E1000029B09B22046D8474FEA4A0A09F1010964
:100E20005FFA8AFA5FFA89F90C9BD1E700230493F1
:100E30000693AFE7069B4B4403FB0611029BCDE9EB
:100E4000005309B2D2F81CB00A9A33462046D8475C
:100E5000E2E7079B013798445FFA88F8FFB2A6E7FC
:100E600011B0BDE8F08F00BF3C5B0200F0B5026A34
:100E700085B004460B46002A34D10A2908D10282E3
:100E8000438A427E03EBC2036382012005B0F0BDBA
:100E90000D29FAD0E17E007E657E71B1B4F9106053
:100EA000062111FB0061B4F90C60B142C1BFB4F975
:100EB0001210228201EBC5026282CDE90205E08AAE
:100EC0000190A08AB4F912200090B4F910102046C5
:100ED000FFF776FE237E228A03EB430302EB4303F4
:100EE0002382D2E70A2907D100230382137B417EA4
:100EF000428A01FB0323C7E70D29C6D0157AA94210
:100F0000C3D3917A9942C0D35D1B5168EDB201EB16
:100F1000C505AF782FB3E97819B3E17E007E667E10
:100F200091B195F905103944B4F9107000FB0171C5
:100F3000B4F90C70B94207DD00272782B4F912100A
:100F4000127B02FB06126282CDE90206E08A019062
:100F5000A08A0090B4F91220B4F910102046FFF7CF
:100F60002FFE2979237E228A01FB0323B8E700297B
:100F700008BF0121002A08BF01220176427670478E
:100F80000A46FFF7F4BF10B586B0C3688DF80F109E
:100F90001868012203680092DC680DF10F010DF161
:100FA0001703A0479DF8170006B010BDF8B5427AA8
:100FB000036804460E46CFB29B680D0A62B93946F3
:100FC0009847236860F307069B68294620469847A0
:100FD00060F30F26B0B2F8BD29469847236860F346
:100FE0000F269B6839462046984760F30706F1E7CD
:100FF00013B5C368186803680092DC680B46A04705
:1010000002B010BD70477047704773B543686D46B6
:101010009942044685E806000E4604D1BDF8042036
:1010200003899A420FD0E3689DF8042018680821CC
:1010300005F08FF9E3683146186805F0A7F90098C4
:10104000AB886060238102B070BDC36810B50446F0
:1010500053B1186840B103685B6898470421E068A1
:1010600008F0CEFF0023E36010BD10B51421044644
:1010700008F0C6FF204610BD73B5C568044625B903
:10108000042008F0A7FFE0600560E3681B6883B9EF
:10109000542008F09FFF4FF0FF3694F9123094F976
:1010A000102094F911100096054605F00DF9E3683B
:1010B0001D6002B070BD000038B50C2002F002FBCC
:1010C00005460B2002F0FEFA04460D2002F0FAFA63
:1010D000094B0A4A1A60012100225A601A72597299
:1010E000DA6098741D745C741846054A0549BDE8B9
:1010F000384008F064BD00BF001500209C6002006D
:101100000002002009100100002930B51ADBB0F9F7
:101110000C408C4216DD002A14DBB0F90E409442DC
:1011200010DD847E022C0ED0032C15D0012C04D1AE
:101130000489D24314440A4621B2012B11D01FD393
:10114000022B2CD030BD0489C9432144D4434289A9
:1011500009B2144422B2F0E74489C9430C44114651
:10116000F8E70589C06A082492FBF4F414FB051122
:1011700002F0070203FA02F2435C1A434254E1E729
:101180000489C06A082392FBF3F313FB041102F0F5
:10119000070201239340425C22EA0302EEE704893E
:1011A000C06A082392FBF3F313FB041102F0070259
:1011B000012303FA02F2435C5A40DFE738B50446E4
:1011C0001D46FFF793FC124B2360124B0022954201
:1011D00008BF1D46FF2384F8333084F8343084F888
:1011E000353084F836309DF9103084F83730059B5F
:1011F000A363069BE363084B636401236262C4E953
:101200000A5284F8482084F84930204638BD00BF8F
:10121000786502008810002000093D00044B10B5DD
:1012200004460360C06A08B110F0DEFC204610BD21
:10123000786502002DE9F0410446806A0F46A0B1AE
:10124000036894F83010DB6A9847A06A03680021AD
:101250001B689847A06A036839461B689847A06ACC
:101260000368BDE8F0415B6B1847014694F8350010
:1012700002F0F4FA606A28B1036839469B68BDE859
:10128000F04118470825802607EA060194F8330044
:1012900002F0E4FA012194F8340002F0DFFA0021B0
:1012A00094F8340002F0DAFA013D4FEA5606EBD129
:1012B000BDE8F08170B50446806A0D4690B10368C0
:1012C000A16B9B6A9847002D204614BFA721A62139
:1012D000FFF7B0FFA06AA0B10368E16B9B6ABDE8AD
:1012E00070401847606A30B10368DE6904F1440356
:1012F00093E80600B047002194F8360002F0AEFAF9
:10130000E1E794F83600012102F0A8FA606A20B102
:101310000368BDE870401B6A184770BD2DE9F047AF
:101320000446806A0D4601EB020800282BD00368B2
:1013300094F83010DB6A9847A06A036800211B68A4
:1013400098470126A06A4545036818D03E2E0DD95E
:101350005B6B9847A06A94F830100368DB6A984783
:10136000A06A036800211B6898470126A06A15F847
:10137000011B036801361B689847B6B2E2E75B6B56
:10138000BDE8F0471847014694F8350002F066FAC8
:1013900045451FD0606A15F8019B20B10368494696
:1013A0009B689847F4E70826802709EA070194F824
:1013B000330002F053FA012194F8340002F04EFA9F
:1013C000002194F8340002F049FA013E4FEA570731
:1013D000EBD1DDE7BDE8F087B0F90A30082207332A
:1013E00093FBF2F3B0F90820C06A5A43002111F0D0
:1013F0003FB800002DE9FF411E46C36A9DF82870E2
:10140000044688461546C3B12046FFF7E5FFB4F908
:101410000A20B4F90830202A4FF002011EDC733B89
:10142000203A012092FBF1F293FBF1F12023CDE968
:101430000130732300938B4B1EE0B0F90A30082073
:10144000073393FBF0F3B4F90800584310F0C4FBE2
:10145000E0620028D8D104B0BDE8F081523B403AA8
:101460004FF0010C92FBF1F293FBF1F14023CDE937
:10147000013C522300937C4B204612B209B2FFF785
:101480004DFBA06A84F83180002800F09780002D81
:1014900040F09280B4F90A30202B14BF3D253C2542
:1014A00084F83050002F00F0D9800368DB6998473A
:1014B000E6B194F93700002818DB0121C0B202F030
:1014C00089F9012194F8370002F0C8F9012002F0EF
:1014D00025F9002194F8370002F0C0F90A2002F043
:1014E0001DF9012194F8370002F0B8F9A06A00282C
:1014F00000F08C800368A16B9B6A984704225B49CB
:101500002046FFF70BFFA17A0139C9B22046FFF749
:1015100091FE574904222046FFF700FF94F931302D
:10152000012B14BF142110212046FFF783FE042253
:1015300050492046FFF7F2FE8F2384F840304E4A90
:10154000A36893427CD002F5001293426DD194F9C6
:101550003130012B14BFCF239F2384F84030122554
:10156000DA212046FFF766FE29462046FFF762FE95
:1015700081212046FFF75EFE94F840102046FFF7D9
:1015800059FED9212046FFF755FE94F93130012B41
:1015900014BFF12122212046FFF74CFE20460622EF
:1015A0003649FFF7BBFEA06A00284BD00368E16B09
:1015B0009B6A984701204EE76DB271E7012194F8CC
:1015C000350002F007F9012194F8360002F002F923
:1015D000012194F8360002F041F9656A35B1002F17
:1015E0003FF466AF2B682846DB6A60E794F8330067
:1015F000012102F0EFF894F83400012102F0EAF83A
:10160000294694F8340002F029F951E7606A30B1B4
:101610000368DD6904F1440393E80600A84700214C
:1016200094F8360002F01AF968E7154A934207D198
:1016300094F93130012B14BFAF23102384F84030CC
:1016400002258DE794F83600012102F007F9606A5F
:101650000028AFD003681B6A9847ABE7002E7FF4E1
:1016600028AF47E790630200D0600200D86502000F
:10167000DC650200E065020080002000E4650200F5
:101680006000100070B5002ABDF810503FDBB0F9C3
:101690000A4094423BDD0029BEBF5B181BB200210B
:1016A000B0F90840CE18A642C4BF631A1BB2002B83
:1016B0002DDDC06A082692FBF6F614FB06110144E4
:1016C00002F0070001228240012DD2B20BD013D3C9
:1016D000022D1CD10B44994219D011F8010B504036
:1016E00001F8010CF7E70B44994210D011F8010BF7
:1016F000104301F8010CF7E7D243D2B20B449942F0
:1017000005D011F8010B104001F8010CF7E770BD8E
:10171000F0B50029BDF8146078DBB0F908C0614568
:1017200074DA002ABEBF9B181BB20022B0F90A402F
:10173000D518A542C4BFA31A1BB2002B66DDD2B2D6
:10174000DDB2C76AD3081CFB031112F0070307EBD5
:10175000010422D0C3F10803DBB2324A9D42D25CBD
:1017600059D2A3EB050E4FF0FF0C4CFA0EFC012EE4
:101770000CEA020207D027D3022E47D117F801C086
:1017800082EA0C0203E017F801C042EA0C029D4213
:101790007A543BD3B0F908201444EB1ADBB2072B80
:1017A00026D9022E15D11A462178C9432170083A4C
:1017B000B0F90810D2B2072A0C44F5D813F0070389
:1017C00024D0194AD35C1BE017F801C02CEA0202AE
:1017D000DDE7002E14BFFF2500251A462570083AC4
:1017E000B0F90810D2B2072A0C44F7D803F0070367
:1017F00063B10D4A012ED35C05D008D3022E05D16A
:101800002278534001E0227813432370F0BD227800
:1018100022EA0303F9E7012EB5D0D5D3022EADD0CD
:101820006444BAE7C8650200D065020030B41446CB
:10183000827EBDF80850022A0DD0032A18D0012A52
:1018400011D10289E443144424B202950A46214688
:1018500030BCFFF75DBF4289E44314440289194458
:10186000511A24B209B20295224630BCFFF70ABFD2
:1018700042891944511A09B2E7E730B41446827E0E
:10188000BDF80850022A0DD0032A18D0012A11D120
:1018900002891C44141B24B202950A46214630BC1E
:1018A000FFF7F0BECA4301890A4411B242891C44C1
:1018B000141B24B20295224630BCFFF729BFCA434D
:1018C00041890A4411B2E7E72DE9F0470446806AEE
:1018D000002845D00368A16B9B6A984705224849B8
:1018E0002046FFF71BFD217A01392046C9B2FFF7D8
:1018F000A1FCB4F90A3008260733D4E90A0593FBA2
:10190000F6F3268916FB03F615FA86F6002840D072
:10191000036894F83010DB6A9847A06A0368402196
:101920001B6898470127A06AB542036827D03E2F5D
:101930000DD95B6B9847A06A94F830100368DB6A96
:101940009847A06A036840211B6898470127A06A4E
:1019500015F8011B036801371B689847BFB2E2E71F
:10196000606A30B10368DD6904F1440393E806005E
:10197000A847002194F8360001F070FFAEE75B6BDA
:101980009847A06A68B30368E16B9B6ABDE8F047BB
:101990001847012194F8350001F060FFB542F0D0FE
:1019A000606A15F8019B20B1036849469B68984717
:1019B000F4E708274FF0800809EA080194F833009B
:1019C00001F04CFF012194F8340001F047FF0021A1
:1019D00094F8340001F042FF013F4FEA5808EBD180
:1019E000DCE794F83600012101F038FF606A20B18D
:1019F0000368BDE8F0471B6A1847BDE8F08700BFE1
:101A0000EA65020030B5A1F11004002500F00F02D4
:101A1000D3B2092ACCBF373330338B73CD7302393D
:101A20008C424FEA1010F1D130BD222070470000E7
:101A300030B5012185B0192001F0CCFE012119201B
:101A400001F00CFF4FF080430022C3F85C2503F542
:101A500088334FF48032C3F848230121C3F80823A8
:101A6000212001F0B7FE0121202001F0B3FE012169
:101A7000212001F0F3FE0121202001F0EFFE104BA8
:101A800001221A600F4A1368002BFCD00E4B002471
:101A9000C3F80045C3F800450C4B0FCB6D4685E8F5
:101AA0000F00234620464FF0FF3155F82320013325
:101AB000042BC2F80005C2F86015F6D105B030BDA0
:101AC000042000404421004000200040F065020056
:101AD00038B54FF0805504462146D5F8A800FFF7E9
:101AE00091FFD5F8A40004F11001FFF78BFF20202F
:101AF00038BD000072B64FF08043B022C3F81C25F9
:101B0000BFF34F8F0549064BCA6802F4E0621343E6
:101B1000CB60BFF34F8F00BFFDE700BF00ED00E0DB
:101B20000400FA05C3680BB19B681847704770B58D
:101B300090F8343105461446F3B90368DB699847D9
:101B400004F47063B3F5407F04F0F0030CBF072189
:101B5000082104F00F02302B0CBF02230123012ABD
:101B600008D0901E42424241A869BDE8704000681A
:101B700004F0D0BD0222F7E770BD10B590F8343103
:101B800004462BB9A369186804F01CFE0028F9D09C
:101B900010BD38B590F834510446A5B983695BB1DE
:101BA000186848B10368DB689847A3691D60042181
:101BB000A06908F025FAA5610023C4F82431C4F80F
:101BC0002831C4F82C3138BD13B590F834310446AF
:101BD0006BBBA369186804F0B5FD40B307F0BAFC0D
:101BE000A3691868036801225B690DF10701984732
:101BF000D4F82C31B3F5807F16D0D4F82C31B3F55E
:101C0000807F11D0D4F824319DF80720234483F835
:101C10002420D4F824310133DBB2C4F82431D4F8C1
:101C20002C310133C4F82C3107F0AAFCD1E702B003
:101C300010BD00007FB590F8343104460D46002BEE
:101C400034D1866926B9042008F0C4F9A061066081
:101C5000A369186860BB4FF4867008F0BBF92B4687
:101C600094F9212094F92010064605F051F8A36953
:101C70001E6094F92220531C06D0A06994F92330E9
:101C80000068032105F054F8A369186870B10A4B85
:101C900003930022094B019369460094029204F0D9
:101CA000AEFD039B13B19B686846984704B070BDB6
:101CB000294604F01BFDDCE700660200C91B010099
:101CC00010B4D0E9013401686210E40701EB0200AE
:101CD00048BF8A585DF8044B48BFD35818470000E6
:101CE00008B590F834313BB1012001F017FD0648EA
:101CF000BDE8084001F028BA82691AB113680033C0
:101D000018BF0123184608BD181D002070B50446F1
:101D10000D4601F019FA30B12368294620461B6CA4
:101D2000BDE87040184770BDA0F5A070EEE7000058
:101D300013B590F834318DF8071004462BB1C9B2B1
:101D40000B48FFF7E3FF02B010BDA369186804F069
:101D500039FD0028F9D0A3691868036801221B69BE
:101D60000DF107019847013018BF0120EBE700BFD4
:101D7000181D00202DE9F04107468846164601F05F
:101D8000E3F970B10024A6420CD9351B402D28BFC1
:101D9000402508EB04012A46384600F0BBFE2C44DF
:101DA000F1E704462046BDE8F081A0F5A070E1E728
:101DB00070B590F8343105460E4614462BB11048E4
:101DC000FFF7D8FF0446204670BDAB69186804F0E1
:101DD000F9FC0028F9D0AB691868D0F80831012166
:101DE0001B6B00F584709847AB691868036822463E
:101DF0001B6931469847013008BF0024E3E700BF64
:101E0000181D002030B50446C3B001F017F9D4F80E
:101E10005832C3F5807398420546C4BFD4F858526F
:101E2000C5F580752A4601AB02A9204600F05CFF8B
:101E3000019902AB6D1A00221D44D4F85832B3F553
:101E4000807F19D08A4217D0D4F85832B3F5807FFA
:101E500010D0D4F85032A85C234483F85001D4F851
:101E600050320133DBB2C4F85032D4F85832013367
:101E7000C4F858320132E0E743B030BD38B504460B
:101E800000F0F0FA2046FFF7BDFFD4F85852204684
:101E900000F0F0FA284638BDA0F5A070EEE700008B
:101EA00010B590F8343104462BB10648FFF7E6FF31
:101EB0000446204610BD07F04DFBD4F82C4107F036
:101EC0005FFBF6E7181D002038B5044600F0CAFA9B
:101ED0002046FFF797FFD4F858324BB1D4F854326C
:101EE000234493F85051204600F0C4FA284638BDE8
:101EF0004FF0FF35F7E7A0F5A070E5E710B590F8D3
:101F0000343104462BB10B48FFF7DEFF0446204670
:101F100010BD07F01FFBD4F82C313BB1D4F82801D9
:101F2000044494F8244007F02BFBF0E74FF0FF3413
:101F3000F9E700BF181D002038B5044600F092FAFA
:101F40002046FFF75FFFD4F85832A3B1D4F85432DB
:101F5000234493F85051D4F854320133DBB2C4F81F
:101F60005432D4F85832013BC4F85832204600F0BD
:101F700081FA284638BD4FF0FF35F7E7A0F5A0708D
:101F8000DAE7000010B590F8343104462BB111485F
:101F9000FFF7D2FF0446204610BD07F0DBFAD4F865
:101FA0002C319BB1D4F82831234493F82400D4F881
:101FB00028310133DBB2C4F82831D4F82C31013B8D
:101FC000C4F82C31044607F0DBFAE4E74FF0FF34A5
:101FD000F9E700BF181D002008B54FF480720021FA
:101FE00010F046FA0022C0F80021C0F80421C0F821
:101FF000082108BD2DE9F047194C1A4F276000252C
:102000004FF47A78C4E90158202604F12400C4E989
:102010000565E5614FF00109FFF7DEFF284684F80A
:10202000349101F04FFB8246484601F04BFB0E4CC9
:10203000FF2384F82100C4E9015804F1240027603B
:10204000C4E90565E56184F820A084F8223084F8AD
:102050002330FFF7C1FF84F83451BDE8F08700BF9B
:102060004C16002014660200141500200020704752
:102070007047704710B5D0F88C452CB123682046C6
:102080005B689847A468F8E710BD38B5D0F88C4570
:102090000D4634B1236820469B6829469847A468BA
:1020A000F7E738BD00487047D466020010B5054B0D
:1020B0000360044606F033F9204606F049F920464D
:1020C00010BD00BF5466020010B50446FFF7EEFFD6
:1020D00020464FF4B26107F093FF204610BDF7B5DC
:1020E000D0F88C4505460E460023A4B1236831463E
:1020F000DF680DF1030201AB2046B8479DF80310DD
:102100000429034605D0019A284605F065FB03B073
:10211000F0BDA468E9E7019A9DF80310F4E770B5F3
:1021200005460E4622B10021BDE8704005F060B9B9
:10213000D0F88C455CB1236800221B6931462046EB
:10214000984710B101212846EEE7A468F2E721463E
:10215000F9E770B5D0F88C450E46054600213CB134
:102160002368314620465B699847A4680146F6E734
:102170002846BDE8704005F02FBAF8B5D0F88C4578
:1021800005460E4617463CB1236820469B693A46F1
:1021900031469847A468F6E728460121BDE8F84093
:1021A00005F078BA70B5002186B0044605F010FD40
:1021B0000023ADF8063023898DF810301B0AA18862
:1021C000E2888DF811304FF4897540F20123ADF8A3
:1021D0000450ADF81230022540F20313EF268DF8BB
:1021E00007508DF809508DF80C100125090A8DF85B
:1021F0000E20ADF81430120A04F10A038DF80860BD
:102200008DF80A508DF80B008DF80D108DF80F2009
:1022100001AD05AE1C462A4603CAB2421860596099
:10222000154603F10803F6D112881A80204606B03D
:1022300070BDF8B5002406460D462746304610F01E
:102240001FFDA04207D9335D05F8143005EB4403A8
:1022500001345F70F2E7400000F0FE00F8BD38B5D1
:10226000D0F88C55044635B12B6828461B6A984730
:1022700010B9AD68F7E7284640F20233A4F84835B4
:1022800004F24A51FFF7D5FF94F84835184484F812
:10229000480504F5A96038BD40F2023310B500F2DC
:1022A0000A510446A0F808350548FFF7C2FF94F824
:1022B0000835184484F8080504F5A16010BD00BF76
:1022C0004066020040F2023310B50446A0F8C8345C
:1022D00000F2CA40FFF7FCFB94F8C834184484F8B5
:1022E000C80404F5996010BD2DE9FF4100238DF865
:1022F0000A3090F888351B4A8DF808300123019286
:102300008DF809303222C0238DF80B308DF80C2067
:1023100001AB044600F54E7803CBC4F83803C8F887
:10232000041088F80820D4F88C6509258EB133682C
:1023300000211B6830469847478805F54E73093FD2
:1023400000F109013A46E0180FF094FF3D44B668E9
:10235000ECE784F83A5340462D1284F83B5304B01E
:10236000BDE8F0810902FFFF73B504460D4616462D
:1023700008F0A0FB4FF480730093014633462A46D1
:10238000204605F0EBFB024B2360204602B070BDF7
:102390005466020010B5D0F88C350446A3B9C0F8D5
:1023A0008C1594F888350B7194F888354A79134464
:1023B00084F888350B6808465B6A98472389184477
:1023C0002081012010BD13469A68002AFBD1996034
:1023D000E7E71FB5044605F0BBFB0146684604F07D
:1023E00063FD4021684604F0D1FDD4F88C4534B13A
:1023F00023682046DB6969469847A468F7E7684682
:1024000004F059FD04B010BD10B50446FFF7E1FF1C
:102410002046BDE8104005F00CBB000010B50D4C87
:102420002378BFF35B8FDB0712D4204607F0DAFB7B
:1024300070B148F25A0242F241310748FFF794FF67
:10244000204607F0F1FB054A0549034807F0B7FBB2
:10245000014810BD841700208817002000020020CA
:10246000AD20010010B5FFF7D9FF0368BDE81040AB
:102470005B6F184710B5FFF7D1FF0368BDE8104048
:102480009B6F184710B5FFF7C9FF0368BDE8104000
:10249000DB6F184704F08CBE04F0A0BE04F078BED9
:1024A000704770477047436A93F878007047D0F8D8
:1024B0002401704701207047004870472C680200D3
:1024C0002DE9F04F044697B00F464B22002103A898
:1024D0000FF0CEFFD4F82431267994F80EA094F8AA
:1024E0000C90002B06F10105637B019314BF0520BE
:1024F0000020EDB2002F40F0978040F20923ADF8A4
:102500000C304FF48173ADF8103080238DF8133008
:1025100032238DF8143008238DF815300B23012158
:102520008DF816308DF8250040F2022342F2054066
:102530004FF0240C4FF0090E04274B22ADF8183051
:102540008DF8211002238DF82410ADF826004FF0ED
:10255000100805208DF82A108DF82D108DF82F10F9
:102560004FF0030B06218DF80E208DF817608DF8C3
:102570001A308DF81DE08DF81F608DF822308DF82F
:1025800023308DF82B008DF82CC08DF831C08DF8DC
:1025900032308DF833108DF834008DF835C08DF859
:1025A0001E708DF829808DF82EB08DF830708DF862
:1025B000361007218DF839108DF8491044F20201C8
:1025C000ADF84C1040F20751ADF850101D349DF895
:1025D00004108DF837608DF838508DF83A008DF87A
:1025E00042508DF84A008DF852108DF8533044F265
:1025F0000306402340F6022503A920468DF83BA0A0
:10260000ADF83C608DF83F808DF840E08DF841706A
:10261000ADF844508DF84B908DF854300FF02AFEF1
:10262000204617B0BDE8F08F0020FAE738B5054620
:102630000A4B45F8D03B0446FFF7F0FE05F06FFE6D
:10264000284604F03DFD04F17C0004F039FD04F15E
:10265000700004F035FD204638BD00BFEC67020075
:1026600010B50446FFF7E2FF20464FF4947107F0DF
:10267000C7FC204610BDFFF705BF000010B5034B97
:102680000360044604F098FB204610BD1C6702005E
:1026900010B50446FFF7F2FF2046282107F0B0FCF2
:1026A000204610BD10B5034B0360044604F084FBC4
:1026B000204610BDEC66020010B50446FFF7F2FF9D
:1026C0002046342107F09CFC204610BD10B5034B7A
:1026D0000360044604F070FB204610BD046702004E
:1026E00010B50446FFF7F2FF2046382107F088FCBA
:1026F000204610BD38B51C4B0D461968C0F80F10A8
:1027000099889B7943750446A0F813104022022152
:10271000284604F031FC402220730221284604F0B0
:1027200030FC402260730321284604F025FCA0738E
:10273000284604F0C1FB20B9AF220C490C4806F032
:1027400059FE002304F18502C4E9322304F1D902C1
:1027500084F8783084F8843084F8D830C4F81C21A8
:10276000C4F8203138BD00BF38670200C7670200D7
:10277000D26702002DE9F34104460E461546FFF7E5
:1027800081FEF28823799A4237D1002D35D17778AE
:10279000012F2ED1F378202B27D13289072A24D17B
:1027A00004F10F0804F11605294640460FF030FDEC
:1027B000D0B1D4F81630C4F80F30207CE17B638BA5
:1027C000A4F8133001EB0021607CE57C237F0095A9
:1027D00001EB00412568A07C637501EB0061237D5E
:1027E000627D6D6B2046A8473D46F378212B08BFDC
:1027F0000125284602B0BDE8F0810025F9E710B5B3
:102800000446FFF73FFEFFF709FE217B05F024FC9D
:1028100004F18503C4F8C8300023C4F8CC3084F830
:10282000843004F17C0004F000FC94F884302BB96F
:1028300023682046DB6BBDE81040184710BD000040
:1028400070B50446FFF71EFED4F820512DB140F2BA
:10285000DD120F490F4806F0CDFD04F1D903C4F88D
:102860001C31FFF7DBFD617B05F054FB84F8D85089
:10287000C4F8200104F1D00004F0D7FB94F8D8305C
:102880002BB9236820469B6BBDE87040184770BD8C
:10289000C76702004467020010B4D0E90134016840
:1028A0006210E40701EB020048BF8A585DF8044B50
:1028B00048BFD35818470000F0B5044687B002ADB2
:1028C000FFF7E0FD0026FFF7A9FDA17B009503239C
:1028D0004022059605F0C6F82846FFF723F9FFF7D2
:1028E0009DFD164B217B164F00954022CDE9033606
:1028F00002230597029405F0B5F82846FFF712F970
:10290000FFF78CFD0F4B617B00954022CDE903362C
:1029100002230597029405F0A5F82846FFF702F96F
:10292000FFF77CFD4023D4F81C21617B05F094FA6D
:10293000012084F8D80007B0F0BD00BFFF270100D8
:102940002C6702004128010038B50223437100239F
:1029500083600C4B044640F8703B154604F058FB6E
:1029600004F17C0004F054FB04F1D00004F050FBAF
:10297000C4F82451FFF752FD2146FFF70BFD204616
:1029800038BD00BFEC67020070B504460D46FFF786
:1029900079FD84F87850002D3ED194F8843033B11D
:1029A000FFF73CFD217B05F02FF984F8845004F1FA
:1029B000850304F17C0600253046C4F8C830C4F80D
:1029C000CC5004F032FB304604F028FB28B91549FE
:1029D00015484FF4A27206F00DFD94F8D83033B1CB
:1029E000FFF71CFD217B05F00FF984F8D85004F1A6
:1029F000D903C4F81C3104F1D00500232846C4F8DB
:102A0000203104F012FB284604F008FB20B94FF4F3
:102A1000A77204490548DEE704F17000BDE8704084
:102A200004F003BBC767020052670200636702003D
:102A300010B50446FFF726FD20460021BDE81040F2
:102A4000FFF7A2BF38B50D460446FFF71BFD042D66
:102A500005D020460021BDE83840FFF795BF38BDBE
:102A6000F8B5164604460D461F46FFF70BFD042336
:102A70003370EA8823799A4225D16978012922D1D5
:102A8000EA78212A08D0222A0BD0202A4FF0000011
:102A90001BD13070163401E031700F343C600720D8
:102AA000F8BDAB8813F0010308BF19462046FFF7B5
:102AB0006BFFAB8803F00103E366AB8803F002030E
:102AC000A366022333700020EAE703233370E7E7AD
:102AD00010B58AB00446FFF7C5FC684604F060F9FB
:102AE0000A4B0093694604F17000099404F0B5FAAA
:102AF0002046FFF7BFFC064B00211A68684604F029
:102B000099F96846FFF7BAFD0AB010BD1C670200CC
:102B10004067020070B58EB0154604460E46FFF7BA
:102B2000A1FC01A804F03CF90E4B0C9501A900256D
:102B300004F17C000193CDE90A468DF8345004F08D
:102B40008CFA2046FFF796FC074B29461A6801A825
:102B500004F070F901A89DF83440FFF7A3FD20466A
:102B60000EB070BDEC6602004067020010B504466E
:102B7000FFF788FC94F884307BB9D4F8CC3063B18B
:102B8000FFF74CFCD4F8CC30217B04F1850205F032
:102B900001FA10B1012384F8843010BD2DE9F84307
:102BA0001E460446894690469DF82070FFF75AFC61
:102BB0000023336094F87830E3B194F88430CBB9D3
:102BC000D4F8CC50C5F14005454528BF4546B8F17D
:102BD000000F05D02A464946D4F8C8000FF04AFB3A
:102BE000D4F8CC302B44C4F8CC30356017B1204633
:102BF000FFF7BCFF2046BDE8F843FFF73BBCF0B54C
:102C00000446406A90F8785085B001262DB984F8C2
:102C100030503546284605B0F0BD04AB002743F8D8
:102C2000047DD4E90A120096FFF7B8FF0399E36A1E
:102C3000A26A5B1A0A44E362A26213B984F83060A4
:102C4000E8E7606AFFF792FF3D46E3E72DE9F043CE
:102C50001C4691B0904606468946FFF703FC002CBF
:102C600008BF01AC4FF00005256002A80CBF01278A
:102C7000002704F095F8104B029302A906F1D0004A
:102C8000CDE90D84CDE90B698DF83C708DF83D5090
:102C900004F0E3F93046FFF7EDFB084B29461A68CC
:102CA00002A804F0C7F802A89DF83D40FFF70EFD0A
:102CB000204611B0BDE8F0830467020040670200BF
:102CC00010B5D0F8203104466BB990F8D83053B91C
:102CD000FFF7A4FB402304F1D902617B05F0BCF8A7
:102CE000012384F8D83010BD70B51E460446002379
:102CF000336094F878300846EBB194F8D830D3B903
:102D0000D4F82051D4F81C11954228BF15462A4604
:102D10000FF0B0FA3560D4F81C31D4F820212B44E0
:102D2000551BC4F81C31C4F8205125B92046BDE814
:102D30007040FFF7C5BF70BD37B50446406A90F8D4
:102D400078502DB984F835500125284603B030BDA0
:102D500002AB002243F8042DD4E90A12FFF7C4FFA6
:102D60000199A26A0A44A262226B13680B441360A1
:102D7000E36A01995B1A94F83410E36209B91268A6
:102D800002B91BB9012384F83530DEE7606AFFF72A
:102D900097FF0025D9E76FF01500704700290CBF99
:102DA0006FF0180000207047012070476FF0150089
:102DB00070476FF0150070471120704770477047DB
:102DC000704703689B6C1847A0F5A070F9E770473F
:102DD0007047704770470368184710B504460120D4
:102DE00000F09CFC94F8780010BDA0F5A070F4E70A
:102DF00038B54FF0FF320123FF210B480B4D07F090
:102E000087FA00F079FC044695F878301BB1012070
:102E100000F084FCF8E700F06FFC001BC728F6D92F
:102E2000BDE83840FEF766BED01F0020181D002008
:102E300007B502AB012243F8041D1946FFF76AFEED
:102E400018B1019803B05DF804FB4FF0FF30F9E7CB
:102E5000A0F59470FFF7ECBF07B502A9002301F8B5
:102E6000013D0122FFF7F2FE20B19DF8070003B0FB
:102E70005DF804FB4FF0FF30F9E7A0F59470FFF721
:102E8000EBBF2DE9F8430446884617461E46089DC9
:102E9000FFF7F8FAD4F87092B9F1000F04D02B467E
:102EA000324639464046C847C4F86082C4F8647266
:102EB000C4F86862C4F86C52BDE8F88370B5064681
:102EC000FFF7E0FA06F51D740025D6F8B432AB42E0
:102ED00008D92046103454F8043C1BB11B689847AD
:102EE0000135F2E770BD0000B0F5966F03D1012106
:102EF000014807F0EFB97047D01F002010B4D0E9A7
:102F0000013401686210E40701EB020048BF8A58EF
:102F10005DF8044B48BFD35818470000114B03F12C
:102F2000780270B50360C0F8282103F1D802E833B5
:102F30000446C0F82C21C0F8403100F51D7600F59C
:102F40002D75AE4204D0103D2846FEF7EBFDF8E7A4
:102F500004F5947005F02AFF2046FFF767FB204632
:102F600070BD00BF6C680200A0F59470FFF7D6BF7B
:102F7000A0F59670FFF7D2BF10B50446FFF7CEFF5D
:102F800020464FF42E7107F03BF8204610BDA0F507
:102F90009670FFF7F1BFA0F59470FFF7EDBF00004A
:102FA000F7B5044615461F460E4607F083FDBDF8EB
:102FB00024300193BDF8203000932A463B46014659
:102FC0002046FFF7C1FC002104F5947005F0C4FE13
:102FD0004FF47A73C4F84831174B236003F1780239
:102FE0000025C4F8282103F1D802E833C4F82C21C5
:102FF000C4F84451C4F840314FF48072294604F5B6
:10300000A8700FF035FAC4F85052C4F88052C4F8D2
:103010005452C4F89052C4F85852C4F8A052C4F89C
:10302000B052C4F8B452C4F8705216B12046FFF73B
:103030004FFD204603B0F0BD6C68020038B5054670
:10304000FFF710FA95F8D8304BB9D5F82041402C4D
:1030500028BF40242846FFF70DFA204638BD00243B
:10306000F8E7000070B5044686B0FFF7FBF92D4B7A
:10307000C4F870322046FFF7FDF92B4B05932B4B1C
:1030800003932046002302940493FFF7EBF9D4F84E
:10309000B452032D13D804EB05166B1C06F51D76F0
:1030A000C4F8B4323046FEF73DFD04EB0515059B30
:1030B000C5F880321BB15B6802A9304698472046AC
:1030C000FFF7D8F902A8FEF72DFDBC2006F082FF1D
:1030D0000026174B0360054631460661403007F075
:1030E0009FF905F1540007F039F9124B00934FF4A2
:1030F000807233462846182107F02CFA0E4B0593B0
:103100000E4BC4F85C5202A92846CDE9023604965B
:1031100007F02CFA02A8FEF705FD2046FEF772FE26
:1031200006B070BDE92E010044680200051E0100D2
:103130001C7F02005C68020050680200F12D010053
:10314000A0F5A070FFF78EBF90F8780070470000E0
:1031500037B50F4C0F4D204607F0B2F82A460E49FE
:10316000204606F02CFD0D4C42F212030122CDE95F
:103170000032002211464FF4F8532046FFF710FFAB
:1031800007492A46204603B0BDE8304006F017BD87
:10319000D01F002000020020DBA20100181D00202B
:1031A0001D2F010008B50DF09DFE2DE9F04F027DA9
:1031B000012A85B005460E4640F0908000214FF070
:1031C000FF3B04460B465F4694F804C048B2BCF18E
:1031D000000F75D194F805C0BCF1000F70D1B7F1A4
:1031E000FF3F1BBF01335BB201233846934201DD31
:1031F0001A4683460131082904F102045ED10024F5
:1032000002EB0B03A1460293CB4502DC029B4B452C
:1032100059DC95F8058095F804A04FEA28170AF0C4
:103220000F03FAB25FEA2A1A019208F00F0870D071
:103230005FFA8AF1BAF1090FD4BF30315731304605
:10324000039300F0CBF8039B0444092B94BF03F1D4
:10325000300103F157013046039300F0BFF80444F6
:10326000BAF1000F02D1039B03B94FB1092F019F9F
:10327000D4BF30375737F9B2304600F0AFF80444C6
:10328000B8F1090F94BF08F1300108F15701304639
:1032900000F0A4F8B9F1070F044404D03A213046F5
:1032A00000F09CF8044409F10109B9F1080F05F197
:1032B0000205A9D1204605B0BDE8F08F074683E797
:1032C0004FF0FF3096E7CB45EDD1BBF1000FE5D1D4
:1032D0003A21304600F082F80444DFE700F110079D
:1032E00000F11309002417F8011B0A22304600F0F0
:1032F000BDF82E218046304600F070F8B9454044B4
:103300000444F0D10A22E97C304600F0AFF80444CE
:10331000D0E7002B99D1A8E710B5054B0360044610
:1033200001751022002104300FF0A2F8204610BDD4
:103330008869020070B5074D0560837400259DF80B
:103340001030057545608560C56001744274C374B2
:1033500070BD00BF8869020007B501210648FFF76C
:10336000DBFF002300931A4619460448FFF7E2FFEB
:1033700003B05DF804FB00BFE41F0020FC1F002029
:103380002DE9F04106460D4601EB02080C46444586
:10339000A4EB050707D0336814F8011B1B683046FF
:1033A00098470028F3D13846BDE8F08170B504464F
:1033B00008460D460FF064FC236802462946204665
:1033C0005B68BDE87040184709B1FFF7EFBF0846DA
:1033D000704703688A685B680968184703681B6858
:1033E000184700000149FFF7E1BF00BF4F7C020012
:1033F00038B50546FFF7E8FF04462846FFF7F2FF19
:10340000204438BD38B50546FFF7E3FF044628469B
:10341000FFF7E8FF204438BD70B58AB00D460AA911
:10342000002301F8043D012A98BF0A22B5FBF2F4FB
:1034300002FB1456F3B2092E94BF30333733DBB29C
:10344000254601F8013D002CF0D1FFF7BDFF0AB081
:1034500070BD10B42AB903685DF8044B1B68C9B28B
:103460001847D2B25DF8044BFFF7D6BFFFF7F1BFA4
:1034700010B50446006808B10EF0B6FB204610BD3A
:1034800010B50446006808B10EF0AEFB00232360BF
:10349000C4E9013310BD38B504460D46006801315A
:1034A0000FF046F810B1C4E90005012038BD0368EB
:1034B00010B5044623B143688B4201D3012010BDEF
:1034C0002046FFF7E8FF0028F9D0A368002BF5D1CC
:1034D00022681370F3E770B50E4611460446154690
:1034E000FFF7E5FF20B92046FFF7CAFF204670BD71
:1034F0002A463146A56020680EF0BCFE2268A3680B
:103500000021D154F2E738B500230446C0E9003366
:1035100083600D4639B108460FF0B2FB29460246DA
:103520002046FFF7D8FF204638BD38B50546084687
:103530000C460FF0A5FB214602462846BDE8384060
:10354000FFF7C9BF884210B50B46044604D009688E
:1035500021B19A68FFF7BFFF204610BDFFF790FF2B
:10356000FAE710B500230446C0E900338360FFF793
:10357000E9FF204610BD10B5044619B1FFF7D5FF8D
:10358000204610BDFFF77CFFFAE770B50A2A28BF76
:103590000A22002390B00446C0E900338360951CE2
:1035A000084616466DB20CF0C5FF03AB00932A46E1
:1035B000334600F057F801462046FFF7DCFF20466F
:1035C00010B070BD2DE9F04105461746884619B97F
:1035D00000263046BDE8F0819AB184681444214643
:1035E000FFF765FF06460028F2D0AB6828683A4628
:1035F000184441460EF03EFE2B68AC6000221A557E
:10360000E7E70126E5E710B58A6809680446FFF791
:10361000D9FF10B92046FFF733FF204610BD0368DD
:103620000A46096863B141B9806860B1187870478B
:10363000906840B108784042704718460FF0A4B92E
:103640000029F5D10846704708B582688B689A4210
:1036500005D1FFF7E4FFB0FA80F0400908BD002073
:10366000FCE7000030B5044687B00D46064901A8C6
:103670000FF020F922462B4601A90A980FF01AF9FB
:103680000A9807B030BD00BF8C69020010B500F089
:1036900047F8FEF7CDF9FEF7C1FEFEF7B5FE4FF491
:1036A000E1310648064CFFF7DDFCFCF75FFEFCF756
:1036B000E1FD002CFBD0AFF30080F8E7181D0020DF
:1036C0000000000010B50446FEF7AFF984423BBF8E
:1036D0002401024B4FF0FF30185710BD04020020A8
:1036E00010B5044603F0C0F9204610BD10B50446DD
:1036F00003F0BAF9204610BD07B50749684603F044
:10370000F0F94FF47A720023DDE900010DF01AFAA6
:1037100003B05DF804FB00BF1820002006F0B0BE27
:1037200008B5044803F0AAF90348BDE8084003F0CF
:10373000A5B900BF302000201820002006F0B0BE40
:1037400038B50A4C0A4D204603F008FA2046094CC9
:1037500009492A4606F033FA204603F00AFA2A46B7
:1037600020460649BDE8384006F029BA302000203E
:103770000002002018200020ED360100E136010093
:1037800008B590F900305A1C04D121220E490F4887
:1037900005F030FE012259B11F2B86BF03F01F0335
:1037A0000B494FF0A04102FA03F3C1F8083508BDF8
:1037B0001F2B86BF03F01F0305494FF0A04102FAFB
:1037C00003F3C1F80C35F2E70C6A02001A6A020032
:1037D000000300502DE9F84304460F46FEF725F993
:1037E000844236D21C4D4FEA041805EB0802D0681B
:1037F00010B1012106F004FC2046FFF763FF81466B
:10380000012006F0E7FB002606704946044604F056
:103810009FFE05EB0803012FDC6010D006D3022FBA
:1038200012D0204602F021FB012103E0204602F0E5
:103830001CFB31462046BDE8F84302F023BB20467E
:10384000BDE8F84302F004BB204602F00EFB032162
:10385000F0E7BDE8F88300BF04020020F7B5064694
:103860000F46FEF7E2F886421BD20F4D05EB061518
:10387000EC687CB93046FFF725FF0646012006F0CC
:10388000A9FB00230446037001220097314604F08F
:1038900077FEEC603946204603B0BDE8F040FFF704
:1038A0006FBF03B0F0BD00BF040200201EF0040F84
:1038B0000CBFEFF30880EFF30980816911F8021C57
:1038C000002932D101B590E80F10E047BDE8005063
:1038D0008CE80300244B93E80600914208BF704730
:1038E0001A6041B91EF0100F10D1204B186820F05B
:1038F000010018600AE02CE9F00F1EF0100F08BF5D
:103900002CED108A81F822E0C1F838C0906B92F853
:10391000221061F0FF0E1EF0100F08BFB0EC108AED
:10392000B0E8F00F80F309887047114A1368994294
:10393000FAD801B552F821C00FC8E047BDE80050E1
:10394000CCF80000704701B501F030FBBDE8014044
:10395000EFF3098CBEE701B501F0ECFABDE80140D8
:10396000EFF3098CB6E700003804002034EF00E0E4
:10397000F86A020008B5014630B96FF0030000F0A4
:10398000EEF96FF0030008BD132001F0C9FE30B955
:103990004FF0FF3000F0E3F94FF0FF30F3E7002085
:1039A000F1E7000008B5EFF305832BB9EFF31083BF
:1039B00013B9EFF3118333B16FF0050000F0CFF9C5
:1039C0006FF0050008BDDFF808C000DFFAE700BFB0
:1039D00075390100EFF310832BB9EFF31180003834
:1039E00018BF0120704701207047000038B5054618
:1039F000A0B1846802686CB114F0030302D1C168FD
:103A00000F2926D86FF00801002002F0D7F8002413
:103A1000204638BDC368002BF4D11546104BD3F8AF
:103A2000900078B100F0FAFB0446A0B10123A37026
:103A30000023C4E90233F322094B2270094A65606E
:103A40005A66E5E7D3F880000122102100F06EFBF2
:103A5000EAE71546EBE76FF0040102F0AFF8D7E7AD
:103A600024040020D13A0100930710B502F00104AC
:103A700022D400F10C0384B153E8000F00EA0102E4
:103A80008A4203D0BFF32F8F002005E020EA010215
:103A900043E8002404B1EFE710BD53E8000F0842EB
:103AA00003D1BFF32F8F002005E020EA010243E895
:103AB000002404B1F1E7EFE7C06801EA00031CB19C
:103AC000994218BF0020E7E7002B08BF0020E3E77A
:103AD000F8B58468054604B9F8BD94F82320616AF6
:103AE000A7682846FFF7C0FF064638B1204601F018
:103AF000D6FB00223146204601F06AFD3C46EAE74B
:103B0000F8B50D4617461E46044620B10378F32B40
:103B100001D1002907DA20466FF0030102F04EF8C8
:103B20006FF00300F8BDFFF79FFF0028FAD186B1C0
:103B30003146432001F0F4FD40B1074B5E69204659
:103B4000314601F091FB756286F823706FF0010039
:103B5000E8E76FF00200E5E72404002070B50546B1
:103B600010B10378F32B07D028466FF0030102F061
:103B700025F86FF0030070BD836863B1284601F03B
:103B800085FB00226FF0020101F022FDA8680028E9
:103B9000F4D101F003FCAB78002613F001032E7082
:103BA0000FD0094BD3F89040294624B1204600F0AD
:103BB0004FFB3046DFE7D3F8800000F0EBFA2046F9
:103BC000D9E71846D7E700BF240400202DE9F041CB
:103BD000064620B10378F32B01D1002909DA6FF0F2
:103BE0000301304601F0EAFF6FF003052846BDE807
:103BF000F08100F10C0353E8002F42EA010543E88D
:103C0000005000B1F7E7B4681CB9204601F0C6FBCC
:103C1000ECE794F82320616AD4F808803046FFF777
:103C200023FF074678B194F823309B0756BF656A97
:103C3000054620EA0505204601F031FB0022394601
:103C4000204601F0C5FC4446DEE7000008B5024608
:103C5000EFF3058333B100206FF0050101F0AEFFF3
:103C6000002008BDFFF7B6FE0028F4D1DFF808C039
:103C7000104600DFF5E700BFED39010038B5024618
:103C8000EFF305834BB192B96FF00301104601F0D9
:103C900095FF6FF00304204638BDFFF79BFE002818
:103CA000F1D1DFF830C0104600DF0446F3E71378A7
:103CB000F32BE9D10029E7DB02F10C0353E8000FF5
:103CC00040EA010443E8004505B1F7E7104601F07A
:103CD000B5F9E0E7CD3B010038B504461D46EFF3EA
:103CE000058343B18CB920466FF0030101F066FFF4
:103CF0006FF0030038BDFFF76DFE0028F2D1DFF84A
:103D000028C020462B4600DFF4E72378F32BEAD1C6
:103D1000002DE8D10029E6DB2046FFF7A5FE0028AC
:103D200008BF6FF00200E5E7013B010008B502465D
:103D3000EFF305833BB110466FF0050101F03EFF44
:103D40006FF0050008BDFFF745FE0028F3D1DFF84E
:103D500008C0104600DFF5E75D3B01007047704783
:103D6000EFF310832BB9EFF31180003818BF012057
:103D70007047012070470000064BDA6A3AB1D069FB
:103D80005B6C1BB11B69984228BF184670474FF007
:103D9000FF30F5E72404002070B5464C237A012B50
:103DA00000F0858033B14FF0FF3001F0FBFE4FF0A3
:103DB000FF3070BD404DD5E90B61EB68E3652B8AA0
:103DC000A4F854303046AB68236400F097F908B18A
:103DD000C4F88060D5E90561304600F08FF908B974
:103DE000D4F880606667D5E90761304600F086F94F
:103DF00008B9D4F88060A667D5E90961304600F0BB
:103E00007DF908B9D4F88060E6676E6B3EB1D6E9FB
:103E100002233168304600F0E0F9C4F88460AE6BEC
:103E20003EB1D6E902233168304600F0D6F9C4F835
:103E30008860EE6B3EB1D6E902233168304600F06F
:103E4000CCF9C4F88C602E6C3EB1D6E902233168FF
:103E5000304600F0C2F9C4F890606E6C3EB1D6E90D
:103E600002233168304600F0B8F9C4F89460AE6CB3
:103E70003EB1D6E902233168304600F0AEF9C4F80D
:103E80009860EE6C3EB1D6E902233168304600F00E
:103E9000A4F9C4F89C602D6D3DB1D5E902232968D1
:103EA000284600F09AF9C4F8A0500123237200209C
:103EB0007FE700BF24040020886A020070B5254D0A
:103EC0002B7A012B07D06FF0060001F06BFE4FF04C
:103ED000FF34204670BD01F057FC10B94FF0FF30A1
:103EE000F3E71D4A1D4E1E497068FF2382F82230F9
:103EF00092F82230D26863F0FF03DB4314BFB3FAB9
:103F000083F32023C3F12003C2F30222934298BF1C
:103F1000531CFE2202FA03F30F4ADBB2D37701F0FF
:103F20009DFE04460028D9D101F0ECFE286101F085
:103F3000D5FE0C4801F0AAF901F028FA3368DB0736
:103F40004CBF0223032383F31488BFF36F8F022334
:103F50002B72BEE72404002000ED00E0886A020016
:103F6000573901004004002010B50F4C237A022B72
:103F700013D101F0BBFE01236372BFF34F8F0B4AD5
:103F80005168C90042BF4FF000615160A372042321
:103F90002372BDE81040FFF7EFBE6FF0070001F09D
:103FA00001FE002010BD00BF2404002000ED00E051
:103FB00038B51E4C237A042B054635D1FFF7DCFEBD
:103FC000E26AA842034694BF00F1FF332B4612B1C8
:103FD000D069C01AD061626C12B11069C01A106148
:103FE000E06803440544E360E368AB4213D1022375
:103FF0000020237201F0D2F900236372BFF34F8FC8
:10400000A27A22B1A3720A4B4FF080525A60BDE8E7
:10401000384001F063BE0133E36001F07DF9236DA8
:10402000002BE1D09847DFE738BD00BF2404002013
:1040300000ED00E0704738B504460D46FFF78EFEF0
:1040400029462046BDE8384001F06EBD08B5FFF7AF
:10405000F1FFEFF3058333B16FF0050001F0A2FD2E
:104060006FF0050008BDFFF77BFE0028F4D1DFF8F4
:1040700008C000DFF6E700BF993D010008B5EFF387
:10408000058333B16FF0050001F08CFD6FF0050082
:1040900008BDFFF765FE0028F4D1DFF808C000DF97
:1040A000F6E700BFBD3E010008B5EFF305832BB175
:1040B0006FF0050001F076FD002008BDFFF750FE0F
:1040C0000028F5D1DFF804C000DFF6E7693F010002
:1040D00008B50246EFF305832BB1BDE808406FF049
:1040E000050001F05FBDFFF73BFE0028F5D1DFF8CA
:1040F00008C0104600DF08BDB13F010010B598B1FF
:1041000040EA010313F007030ED117290AD9016011
:10411000083910220C18846042600B5081684A6094
:10412000C3600123184610BD0023FBE7F0B578B348
:1041300099B132F003032BD10F3121F0070700F1C1
:1041400008052B462D685C68E91A24F00304091B56
:104150008F4204D929680029F3D10846F0BD46688A
:1041600004683E4446602044083841688E4288BF57
:10417000466058683A4318B95A6003F10801ECE701
:1041800020F0030019181D504A6019600831E4E757
:104190000021E2E730B590B1D9B1A1F1080500F1F5
:1041A00008040022AC420BD151F8043C23F0030474
:1041B00043681B1B436042B941F8042C012030BD09
:1041C000236822463BB11C46ECE751F8083C1360DB
:1041D000F4E70846F3E71846F1E730B5C0B189B116
:1041E000C2B1CBB10024C0E9014202FB01F41D19A8
:1041F0000160C360436105611846013904D1A21A08
:1042000099500121084630BD851805602846F4E71D
:104210000146F7E71146F5E71946F3E710B50346FF
:10422000A8B100F1140252E8000F10B9BFF32F8FAC
:1042300004E0016842E8001404B1F4E738B1043343
:1042400053E8002F511C43E8001404B1F8E710BDF7
:1042500030B5F0B1C3688B421BD803698B4218D9C3
:1042600000F114031A680A60BFF35F8F53E8002F50
:104270000C689442F6D143E8001505B1F2E704302A
:1042800050E8003F5A1E40E8002101B1F8E7002045
:1042900030BD6FF00300FBE7EFF310832BB9EFF3B2
:1042A0001180003818BF0120704701207047036B50
:1042B00030B5E3B1CD780024DA78AA420FD31A469C
:1042C000C1E901248AB19160A4B16160283050E84D
:1042D000003F5A1C40E8002101B1F8E730BD5A68A0
:1042E0001C46002AECD01346E6E7C162ECE7C1E9C0
:1042F0000133C1620163E9E7D1E9013223B19A6078
:104300008A681AB153607047C262F9E70363704765
:10431000F8B5877804468FB3C5680146002728465C
:1043200005F10C06FFF7E8FF27703046FFF790FF16
:10433000AB68002B48D03046FFF770FF04460028DA
:1043400042D0284600F0A2FF3A460646394601F020
:104350003FF9304601F010F86A6A8168064604F1B8
:104360000C000DF087FFF9232370A770F368E3704A
:1043700021462846BDE8F840FFF799BF8568AB683D
:10438000002BF5D05B78832BF2D1284600F07EFF1E
:104390003A460646394601F01BF9304600F0ECFF7C
:1043A00006466A6A806804F10C010DF063FFF36849
:1043B0000BB1E2781A7000232370214605F10C003E
:1043C000BDE8F840FFF744BFF8BD00002DE9F0411B
:1043D0000C4617469846054618B10378FA2B00D1CB
:1043E00041B928466FF0030101F0FEFB6FF00300B6
:1043F000BDE8F0818368C3B15B78832B15D100F0F1
:1044000045FF01220646002101F0E2F8304600F0A7
:10441000B3FF06466A6A806821460DF02BFFF068FC
:104420000028E5D007700020E2E705F10C00FFF757
:10443000F5FE064670B121466A6A0C300DF01AFF8F
:104440000024F9233370B470F77031462846FFF723
:104450002EFFE8E7B8F1000F10D04146932001F09D
:104460005FF940B1074B2846596900F0FDFEEFF3B4
:104470000983C3E902476FF00100B9E76FF002005A
:10448000B6E700BF240400202DE9F84F8846074610
:1044900038B131B1B0FA80F3B1FA81F10B441F2B7E
:1044A00006DC6FF00301002001F09EFB002470E0A9
:1044B00008F1030626F003060C3606FB00F9F2B1FC
:1044C00094683CB1A30702D1D368332B05D86FF0B1
:1044D0000801E8E7D368002BF9D1D2E90453D2F8F8
:1044E00000A03DB115F0030B01D1994554D96FF0EF
:1044F0000901D8E7002BFAD11CB19B460CE092468B
:104500001546274BD3F8A000D8B1FFF787FE044625
:10451000A0B14FF0010B35BB214B0022D86F4946AB
:10452000FFF704FE0546C0B9BBF1000F06D01C4BD7
:10453000D3F8A000214658B1FFF78AFE6FF00401BE
:10454000B1E7D3F8800001223421FFF7EFFDDEE769
:10455000D3F88000FFF71EFEF0E74A4600210DF079
:1045600087FF4BF0020BFA2323700023C4E9098371
:10457000C4E90B33A36032462B4684F802B0C4F87A
:1045800004A0394604F10C00FFF727FE044B054A4E
:104590001A672046BDE8F88F002CE4D1B1E700BFD0
:1045A000240400201143010010B500F1280353E852
:1045B000002F12B9BFF32F8F04E0511E43E80014FF
:1045C00004B1F4E70AB9002010BDC06A0123002835
:1045D000F9D0821CD2E84F1FC2E8443F04B1F9E78A
:1045E00011F0FF0FF0D08068F1E700002DE9F041F5
:1045F0000F4615469846044618B10378FA2B00D1A9
:1046000041B920466FF0030101F0EEFA6FF00300AC
:10461000BDE8F081FFF7C8FF064600283AD0014602
:104620002046FFF769FE626A06F10C0138460DF07C
:1046300021FE0DB1F3782B70002504F10C073570C5
:1046400031463846FFF704FEA3680BB90020DFE7C8
:104650003846FFF7E3FD06460028F7D0204600F075
:1046600015FE29460746012200F0B2FF384600F049
:1046700083FE626A8168074606F10C000DF0FAFDC0
:10468000F9233370B570FB68F37031462046FFF7AD
:104690000EFEDBE7B8F1000F10D04146832001F099
:1046A0003FF840B1074B2046596900F0DDFDEFF3BC
:1046B0000983C3E902756FF00100A9E76FF00200FA
:1046C000A6E700BF2404002008B5064B08219A6E17
:1046D000D86EFFF7D9FE044BD864B0FA80F04009D9
:1046E000404208BD886A0200240400202DE9F04100
:1046F00006460F4690461C46EFF305834BB196B92C
:1047000030466FF0030101F06FFA6FF00300BDE86F
:10471000F081FFF7C1FD0028F1D1DFF84CC0304631
:10472000234600DFF3E73378FA2BE9D1002FE7D0F7
:10473000002CE5D106F10C00FFF770FD054680B1B5
:10474000726A39460C300DF095FDF9232846C5E90B
:1047500001762B70AC7085F8038000F06FFC20466A
:10476000D5E76FF00200D2E7CD430100F8B504466B
:104770000F4616461D46EFF3058343B18CB920461C
:104780006FF0030101F030FA6FF00300F8BDFFF79E
:1047900083FD0028F2D1DFF848C020462B4600DF19
:1047A000F4E72378FA2BEAD1002FE8D0002DE6D1E8
:1047B0002046FFF7F9FE054670B100F10C01626A70
:1047C00038460DF057FD0EB1EB7833702846EC609B
:1047D00000F034FC0020D9E76FF00200D6E700BFFC
:1047E000ED450100EFF310832BB9EFF31180003892
:1047F00018BF0120704701207047000070B5A8B3B2
:104800008468D0E900566CB114F0030302D1C26889
:104810001B2A1AD86FF00801002001F0D5F90024F6
:10482000204670BDC368002BF4D1124BD3F894001E
:1048300030B9D3F8800001221C21FFF777FC01E09A
:10484000FFF7ECFC044660B10123F522A3700023BE
:10485000C4E90233C4E904332270E670656023764C
:10486000DEE76FF0040101F0AFF9D9E7054606462F
:10487000DBE700BF24040020284B70B55D690446C7
:104880000E4635B96FF0070101F09EF94FF0FF3089
:1048900070BD10B10378F52B07D020466FF00301EF
:1048A00001F092F96FF00300F2E7037E53B9C0E91B
:1048B0000353EB6A436103B11861EC620123237671
:1048C0000020E5E7C278D1070DD5C168A9420AD119
:1048D000FF2B06D16FF00F0101F076F96FF00200A7
:1048E000D6E70133EBE7002EF8D093070AD5E0684E
:1048F00095F9203090F920209A4203DA80F8203090
:1049000000F0D6FC3146532000F00AFF18B12946CA
:10491000204600F0A9FC6FF00100B9E72404002054
:104920002E4B5A6970B5044632B96FF0070101F099
:104930004BF94FF0FF3070BD10B10378F52B07D065
:1049400020466FF0030101F03FF96FF00300F2E73A
:10495000037E33B96FF00E0101F036F96FF00200FB
:10496000E9E7C168914202D06FF00D01F4E7013B25
:10497000DBB2037613BB43690BB10169196121698D
:10498000F1B14B6192F92130D56ADDB982F820305E
:10499000A36883B1204600F079FC06462A462946E2
:1049A00000F016FEF36A6361C4E9036503B11C619C
:1049B0000123F4622376002000F0F0FC0020BAE727
:1049C000D362DFE7E978890706D5A96821B191F9B3
:1049D00020108B42B8BF0B466D69D6E72404002037
:1049E00070B5044610B10378F52B07D020466FF060
:1049F000030101F0E9F86FF0030070BD037EBBB165
:104A00006369C0680BB122691A61226902B35361FC
:104A100090F92120C36AEBB990F92030934203D07A
:104A200080F8202000F044FCA068F8B900F0B6FC43
:104A3000A078002610F001002670DED0134BD3F8CA
:104A400094502146DDB12846FFF702FC3046D4E7FA
:104A5000C362DDE7D978890706D5996821B191F954
:104A600020108A42B8BF0A465B69D4E7204600F0AE
:104A70000DFC00226FF0020100F0AAFDD4E7D3F88C
:104A80008000FFF787FB2846B7E700BF240400201B
:104A90002DE9F0410446002601270CB9BDE8F0815C
:104AA000E378D4F814801B0712D5A36826767BB16F
:104AB000204600F0EBFB00220546114600F088FD81
:104AC000EB6A6361C4E9035603B11C61EC622776AB
:104AD0004446E2E710B4C3789B071DD5C06890F93F
:104AE0002120C36ADC78A40709D59C688C4208BFE2
:104AF0008C6824B194F92040A242B8BF22465B6979
:104B0000002BEFD190F92030934205D080F820207F
:104B10005DF8044B00F0CCBB5DF8044B704700001F
:104B200008B50246EFF3058333B100206FF00501AD
:104B300001F04AF8002008BDFFF754FE0028F4D128
:104B4000DFF808C0104600DFF5E700BFFD470100B1
:104B500008B50246EFF305833BB110466FF005013F
:104B600001F032F86FF0050008BDFFF73BFE0028AA
:104B7000F3D1DFF808C0104600DFF5E779480100FF
:104B800008B50246EFF305833BB110466FF005010F
:104B900001F01AF86FF0050008BDFFF723FE0028AA
:104BA000F3D1DFF808C0104600DFF5E72149010026
:104BB00008B50246EFF305833BB110466FF00501DF
:104BC00001F002F86FF0050008BDFFF70BFE0028AA
:104BD000F3D1DFF808C0104600DFF5E7E149010036
:104BE000EFF310832BB9EFF31180003818BF0120C9
:104BF0007047012070470C30D0E85F3F13B9BFF316
:104C00002F8F04E05A1EC0E8512F01B1F4E798B28B
:104C1000003818BF0120704730B500F10C02C1897F
:104C2000D2E85F3F994202D8BFF32F8F04E05C1CAB
:104C3000C2E8554F05B1F3E7C0899BB2984294BFD3
:104C40000020012030BD0000F8B515464FF6FE7378
:104C5000421E9A4206460F4601D8884207D26FF09C
:104C60000301002000F0B6FF00242046F8BD7DB10E
:104C7000AC682A6844B114F0030302D1E9680F2933
:104C800022D86FF00801ECE7EB68002BF9D115464C
:104C9000114BD3F8980080B1FFF7C0FA0446A8B1D1
:104CA0000123A3700023F622A3600B4B22700B4A52
:104CB0006560A781E6819A66D7E7D3F88000012274
:104CC0001021FFF733FAE9E71546EAE76FF0040130
:104CD00000F080FFC9E700BF24040020E14C010080
:104CE000836810B504465BB1FFF785FF40B12046ED
:104CF00000F0CCFA0022BDE81040114600F068BC7C
:104D000010BD38B5054610B10378F62B07D02846FC
:104D10006FF0030100F05EFF6FF0030038BD8468A0
:104D20003CB100F0B3FA0122002100F051FC002058
:104D3000F4E7FFF771FF38B928466FF0100100F073
:104D400049FF6FF00200E9E72046E7E738B50D4676
:104D5000044610B10378F62B07D020466FF003010C
:104D600000F038FF6FF0030038BDFFF744FF68B96B
:104D700075B12946632000F0D3FC20B1064B2046D4
:104D8000596900F071FA6FF00100EDE70020EBE7E0
:104D90006FF00200E8E700BF2404002070B505466C
:104DA00010B10378F62B07D028466FF0030100F00E
:104DB00011FF6FF0030070BD836863B1284600F0F7
:104DC00065FA00226FF0020100F002FCA8680028DA
:104DD000F4D100F0E3FAAB78002613F001032E7053
:104DE0000FD0094BD3F89840294624B12046FFF74D
:104DF0002FFA3046DFE7D3F88000FFF7CBF92046E3
:104E0000D9E71846D7E700BF2404002010B50446B0
:104E1000EFF3058333B100206FF0050100F0DAFEF7
:104E2000002010BDFFF7DCFE0028F4D1DFF808C039
:104E3000204600DFF5E700BF494C010008B50246F7
:104E4000EFF3058343B182B910466FF0030100F020
:104E5000C1FE6FF0030008BDFFF7C2FE0028F2D1CB
:104E6000DFF824C0104600DFF5E71378F62BEBD10E
:104E70000029E9D11046FFF7BEFE002814BF00202C
:104E80006FF00200E7E700BF4D4D010010B504468A
:104E9000EFF3058343B184B920466FF0030100F0BE
:104EA00099FE6FF0030010BDFFF79AFE0028F2D1C3
:104EB000DFF830C0204600DFF5E72378F62BEBD192
:104EC0002046FFF7A9FE20B1204600F0B7F80020E9
:104ED000E9E720466FF0100100F07CFE6FF0020061
:104EE000E1E700BF034D010008B50246EFF305837B
:104EF0003BB110466FF0050100F06CFE6FF005004D
:104F000008BDFFF76DFE0028F3D1DFF808C010469A
:104F100000DFF5E79D4D010010B5D0E85F3F5A1C5A
:104F2000914200D80022C0E8542F04B1F5E798B2AE
:104F300010BD000038B51C4C00F0DEFEE368013304
:104F4000E36000F0E9F9002000F028FA236D03B1D6
:104F50009847226C32B3A369E16B994203D0D969B7
:104F6000E36301B9DA61DA69C2B9237A022B19D194
:104F7000656ABDB1E36B95F9202093F920309A4220
:104F800010D1284600F08BF9E06B00F0A3F9284619
:104F900000F0FCF9236CE563EB6103E0013ADA61B0
:104FA000002AE2D038BD00BF2404002070B5224C96
:104FB00004F1560504F15A06B4F85410D5E85F3FE1
:104FC00013B9BFF32F8F04E05A1EC5E8502F00B16C
:104FD000F4E79BB25BB33046FFF79EFFE36D53F8F7
:104FE000200020B30378F13B082BE5D801A252F84A
:104FF00023F000BF19500100B94F01001F500100FC
:10500000B94F0100B94F01002350010027500100A2
:10501000B94F01002B500100236E9847CCE7636E17
:10502000FBE7A36EF9E7E36EF7E7236FF5E7BDE86B
:105030007040002000F0B2B92404002070B5164C76
:105040000546B4F8541004F15602D2E85F3F994285
:1050500002D8BFF32F8F04E0581CC2E8560F06B1E8
:10506000F3E79BB2994205D829460220BDE870407B
:10507000FEF7E1BF04F15800FFF74EFFE36D43F880
:105080002050637A23B9054B4FF080525A6070BDAF
:105090000123A372FBE700BF2404002000ED00E021
:1050A000EFF310832BB9EFF31180003818BF012004
:1050B0007047012070470378F12B00D07047C0681B
:1050C000F9E7000010B5C469621CD0E904310CD1C5
:1050D00003B1596142691AB113610023436101E0D0
:1050E000074A13630023C36110BD1BB1DA6959611C
:1050F0002244DA614269002AEED1014AD362F1E723
:105100002404002010B50A4A90F9201001234370AE
:10511000536A1C321BB193F920408C4205DCC0E974
:105120000232906003B1D86010BD1A469B68F1E767
:1051300024040020014B5869704700BF240400205C
:1051400008B500F057FDDFF810C000DF4FF0FF3169
:10515000002000F02DFDFEE739560100930710B541
:1051600002F0010422D400F1280384B153E8000FB7
:1051700000EA01028A4203D0BFF32F8F002005E02E
:1051800020EA010243E8002404B1EFE710BD53E830
:10519000000F084203D1BFF32F8F002005E020EA63
:1051A000010243E8002404B1F1E7EFE7806A01EA75
:1051B00000031CB1994218BF0020E7E7002B08BF8D
:1051C0000020E3E710B5084A136B00213BB94FF00C
:1051D000FF34C0E90431C46121B1086110BD194632
:1051E0001B69F3E71063F9E72404002010B50023DE
:1051F000038083789A07044608D513F0100F016BDB
:105200000E4B0FD0D3F88400FFF722F8A378DB070A
:1052100012D50A4BD3F88800214638B1BDE81040BA
:10522000FFF716B8586FFEF7B5FFEFE7BDE810407F
:10523000D3F88000FEF7AEBF10BD00BF24040020ED
:10524000C278D207034601D4FFF7D0BF04224270D0
:105250000022C260034A516B816001B1C860536390
:10526000704700BF2404002010B591F92020836806
:105270001BB193F92040944205DAC1E90230816004
:1052800003B1D96010BD18469B68F1E783689A683E
:10529000826002B1D0600022DA6018467047C268AE
:1052A0002AB18368936003B1DA600023C36070475A
:1052B00010B50146044664B12378F12B07D00846A7
:1052C000FFF7EDFF2046BDE81040FFF7CDBFE468D3
:1052D000F1E710BD0123014643700148FFF7C4BF49
:1052E0004004002070B50B4D2E7A022E10D16C6A4E
:1052F00074B1696994F9202091F920309A4207D15C
:105300002046FFF7CCFF0846FFF7E4FF6670AC616C
:10531000002070BD2404002038B5164DEC6A44B35B
:10532000E369013BE36123BB6378732B06D009D8A3
:10533000532B0BD003F0DF03432B0DD12046FFF797
:10534000BAFE09E003F0EF03832BF6E72046FFF7F0
:10535000B2FE2146FFF7BEFB2046FFF7A0FFFFF796
:10536000B9FF246924B1E369002BDDD00023636118
:10537000EC6238BD2404002090F82230826B13F0D8
:10538000100F0CBF60202020104470470223437090
:10539000014B9861704700BF2404002070B5124D86
:1053A00004462E7A696990B9022E0FD16C6A6CB1ED
:1053B00094F9202091F920309A4207DD2046FFF72A
:1053C0006EFF0846FFF79EFE6670AC6170BD022E50
:1053D00005D190F9202091F920309A42F1DC204645
:1053E000BDE87040FFF776BF240400202DE9F04FA0
:1053F00085B08146029128B96FF0030100F0D8FB17
:105400000024BCE0002A45D0966846B1B40702D11A
:10541000D368432B06D86FF008010020EEE7D3686D
:10542000002BF8D1D2E9044597693CB1600702D15D
:10543000002D40F0B2806FF00A01EEE72FB17B1E25
:10544000372B03D96FF00B01E7E71827002D40F049
:10545000A880D2E900A301934EBB574BD3F8880034
:10546000F0B1FEF7DBFE064600283AD04FF0010807
:10547000002C44D1DFF840B1E5B9504ADBF8840094
:10548000556DB8B1FEF7CAFE0246E0B148F010080B
:10549000344623E092461446182715460192DCE76D
:1054A000D3F8800001224421FEF740FEDBE74FF0F5
:1054B0000008DDE72246DBF874002946FEF736FED9
:1054C00002460028E4D1B8F1000F16D0DBF888209E
:1054D00052B110463146FEF7BBFE002248F00208EA
:1054E0007CB96FF0040198E7DBF880000392314645
:1054F000FEF750FE039A1446F0E74246EEE72246D6
:10550000344640F2F1132380019BE3700023C4E989
:105510000233C4E90433C4E90633C4E90933C4E9F6
:105520000B32A5F140031344C4E90E397FB2244B7A
:1055300084F80280FD21C4F804A084F8207084F867
:1055400021706184656313601C4B1B685B071AD470
:10555000A36B00201A4603F1340143F8040B99426F
:10556000FBD1184BC2E90D394FF08073D363029B16
:105570001362114B144A1A662046FFF70FFF2046AC
:1055800005B0BDE8F08FAD08113D4FF0CC33002DD4
:10559000DED042F8043F013DF9E7002F7FF44FAF22
:1055A000182769077FF447AF084BA5F148019942D6
:1055B0007FF64FAF3FE700BF24040020886A020057
:1055C000A52E5AE241510100F5550100B7FFFF7FBA
:1055D00038B504461546FFF7CFFE01602046FFF7B9
:1055E00071FD1DB1BDE83840FFF7D8BEBDE83840B9
:1055F000FFF770BE10B54378332B04460CD1416AD7
:1056000090F82320FFF7AAFD014628B1204600228A
:10561000BDE81040FFF7DCBF10BD10B5044680693F
:1056200018B100221146FFF7D3FF6378232B02BF86
:10563000A36800229A6110BD70B50F4C267A022E25
:1056400018D1636AB3B16569E86AFFF721FA2846A1
:10565000FFF7E3FF04F11C00FFF718FE4670A0619E
:10566000EFF30983AB63002363612846BDE8704014
:10567000FFF7E6BD70BD00BF2404002010B504464E
:1056800010B10378F12B07D020466FF0030100F032
:105690008FFA6FF0030010BD437803F00F03022B65
:1056A0001ED0032B2BD0012B2ED1FFF7F8FDE06A83
:1056B000FFF7EEF92046FFF7B0FF6178022926D107
:1056C0001548FFF7E3FD154B41709861EFF3098230
:1056D000A26300225A612046FFF7B2FD0020DAE7FC
:1056E0000E4B1A7A022A02D15B6A002BDFD16FF0CF
:1056F0000201204600F05CFA6FF00200CBE7FFF7F2
:10570000CEFDFFF7DFFCD2E76FF00201F2E70020E9
:10571000FFF744FEDFE700BF400400202404002020
:1057200038B5174C237A022B024627D1606A60B144
:1057300060694B1C427009D1FFF744FD1148FFF727
:10574000A5FD02234370A061012038BDE36A002259
:1057500013B1DD69A9420BD2C0E90432C1615AB16B
:105760001061002BEAD0DA695861511AD961E5E776
:105770001A46491B1B69EBE7E062F2E70020E4E709
:10578000240400204004002038B50D4C0D48A26DC3
:105790000D4D0021FFF72AFE636EA8625BB19847AA
:1057A00058B9E26DE96C206EFFF720FEA86400385E
:1057B00018BF012038BD0120FCE70020FAE700BF38
:1057C000886A0200215B01002404002010B5044611
:1057D000EFF3058333B100206FF0050100F0E8F925
:1057E000002010BDFFF75CFC0028F4D1DFF808C0F2
:1057F000204600DFF5E700BFED53010008B5EFF3E9
:10580000058313B1054B586908BDFFF749FC002813
:10581000F8D1DFF80CC000DFF6E700BF2404002059
:105820003551010008B5EFF305833BB100206FF05F
:10583000050100F0BDF96FF0050008BDFFF730FC71
:105840000028F3D1DFF804C000DFF6E7E5520100DD
:1058500010B5044600F0DAF9EFF305833BB12046BA
:105860006FF0050100F0A4F96FF0050010BDFFF71F
:1058700017FC0028F3D1DFF808C0204600DFF5E769
:105880007D5601000C4A536C30B5002413B11D69DC
:105890008D420AD9C0E9024301611BB11D699860BC
:1058A000691A19612CB1E06030BD1C46491BDB68E8
:1058B000ECE75064F8E700BF240400202DE9F04134
:1058C000184D6C6C54B323696E69013B2361012749
:1058D000236913BBE3680BB1A2689A606B64002371
:1058E000E86C1A4604F11801FEF700FF58B1D5E93B
:1058F0000583214603206B61FEF79DFB6B6913B99D
:10590000B04508BF0026E378012B09D16169204624
:10591000FFF7B8FF6C6C002CDAD16E61BDE8F08146
:105920006770F7E72404002008B5FEF7CDFE18B92C
:10593000034B044A1A6508BD4FF0FF30FBE700BF78
:1059400024040020BD58010007B504464FF0FF3382
:10595000002269462046FEF709FF0028F6D1DDE95E
:1059600000309847F2E7000008B5094B094A1A6071
:10597000094B9B1A094A1360094B0A4A1A600A4BE1
:105980009B1A0A4A136000F051F800F069F800BF52
:10599000FC26002000FC032000000420F826002044
:1059A000842A0020F0B6002000FC0320802A00207A
:1059B0000E4838B50E4B03600B250E4B45601C247A
:1059C000C4608360FFF7ACF80B4B18600B480C4BBE
:1059D000C460C0E900350B4B8360FFF7A1F80A4BA8
:1059E0001860BDE838400CF053B800BFC82600204E
:1059F0005C6B0200DC260020D826002098260020C0
:105A0000696B0200AC260020A8260020FDF73EBEF0
:105A1000024B4FF0FF311868FFF79AB8D8260020E4
:105A2000014B1868FFF7ACB8D826002008B506F07F
:105A30003DF8BDE8084000F011B87047704708B560
:105A400000F042F8FFF7F9FFFFF7B2FFFFF7F6FFAC
:105A500003F0EAFEBDE80840FFF7D8BFFEF7F6BA4C
:105A6000114C124B23614FF4004363614423E36004
:105A70000F4BA360182307B5A3610E480E4B23609C
:105A800022460021FFF7A2FE034628B90B490090E9
:105A900022460B4803F0D0FEFEF7F0FA0023094936
:105AA00000931A46F5E700BFFC31002028320020A1
:105AB000002700203F5A0100836B0200886B020020
:105AC0001D010180A46B02001FB5064B0FCB6C4675
:105AD00084E80F002046FFF723F8034B186004B05A
